{
  "_format": "hh-sol-artifact-1",
  "contractName": "RiceTracking",
  "sourceName": "contracts/RiceTracking.sol",
  "abi": [
    {
      "inputs": [],
      "stateMutability": "nonpayable",
      "type": "constructor"
    },
    {
      "anonymous": false,
      "inputs": [
        {
          "indexed": true,
          "internalType": "uint256",
          "name": "id",
          "type": "uint256"
        },
        {
          "indexed": true,
          "internalType": "address",
          "name": "deleter",
          "type": "address"
        }
      ],
      "name": "BatchDeleted",
      "type": "event"
    },
    {
      "anonymous": false,
      "inputs": [
        {
          "indexed": true,
          "internalType": "uint256",
          "name": "id",
          "type": "uint256"
        },
        {
          "indexed": false,
          "internalType": "string",
          "name": "newIpfsHash",
          "type": "string"
        }
      ],
      "name": "BatchImageUpdated",
      "type": "event"
    },
    {
      "anonymous": false,
      "inputs": [
        {
          "indexed": true,
          "internalType": "uint256",
          "name": "id",
          "type": "uint256"
        },
        {
          "indexed": false,
          "internalType": "string",
          "name": "variety",
          "type": "string"
        },
        {
          "indexed": true,
          "internalType": "address",
          "name": "farmer",
          "type": "address"
        }
      ],
      "name": "PaddyCreated",
      "type": "event"
    },
    {
      "anonymous": false,
      "inputs": [
        {
          "indexed": true,
          "internalType": "uint256",
          "name": "id",
          "type": "uint256"
        },
        {
          "indexed": true,
          "internalType": "address",
          "name": "miller",
          "type": "address"
        }
      ],
      "name": "RiceProcessed",
      "type": "event"
    },
    {
      "inputs": [
        {
          "internalType": "address",
          "name": "_farmer",
          "type": "address"
        }
      ],
      "name": "addFarmer",
      "outputs": [],
      "stateMutability": "nonpayable",
      "type": "function"
    },
    {
      "inputs": [],
      "name": "admin",
      "outputs": [
        {
          "internalType": "address",
          "name": "",
          "type": "address"
        }
      ],
      "stateMutability": "view",
      "type": "function"
    },
    {
      "inputs": [],
      "name": "batchCount",
      "outputs": [
        {
          "internalType": "uint256",
          "name": "",
          "type": "uint256"
        }
      ],
      "stateMutability": "view",
      "type": "function"
    },
    {
      "inputs": [
        {
          "internalType": "uint256",
          "name": "",
          "type": "uint256"
        }
      ],
      "name": "batches",
      "outputs": [
        {
          "internalType": "uint256",
          "name": "id",
          "type": "uint256"
        },
        {
          "internalType": "string",
          "name": "variety",
          "type": "string"
        },
        {
          "internalType": "string",
          "name": "origin",
          "type": "string"
        },
        {
          "internalType": "address",
          "name": "farmer",
          "type": "address"
        },
        {
          "internalType": "address",
          "name": "miller",
          "type": "address"
        },
        {
          "internalType": "uint256",
          "name": "harvestDate",
          "type": "uint256"
        },
        {
          "internalType": "uint256",
          "name": "millingDate",
          "type": "uint256"
        },
        {
          "internalType": "bool",
          "name": "isOrganic",
          "type": "bool"
        },
        {
          "internalType": "enum RiceTracking.State",
          "name": "state",
          "type": "uint8"
        },
        {
          "internalType": "string",
          "name": "ipfsHash",
          "type": "string"
        }
      ],
      "stateMutability": "view",
      "type": "function"
    },
    {
      "inputs": [
        {
          "internalType": "string",
          "name": "_variety",
          "type": "string"
        },
        {
          "internalType": "string",
          "name": "_origin",
          "type": "string"
        },
        {
          "internalType": "bool",
          "name": "_isOrganic",
          "type": "bool"
        },
        {
          "internalType": "string",
          "name": "_ipfsHash",
          "type": "string"
        }
      ],
      "name": "createPaddyBatch",
      "outputs": [],
      "stateMutability": "nonpayable",
      "type": "function"
    },
    {
      "inputs": [
        {
          "internalType": "uint256",
          "name": "_id",
          "type": "uint256"
        }
      ],
      "name": "deleteBatch",
      "outputs": [],
      "stateMutability": "nonpayable",
      "type": "function"
    },
    {
      "inputs": [
        {
          "internalType": "uint256",
          "name": "",
          "type": "uint256"
        }
      ],
      "name": "farmerList",
      "outputs": [
        {
          "internalType": "address",
          "name": "",
          "type": "address"
        }
      ],
      "stateMutability": "view",
      "type": "function"
    },
    {
      "inputs": [
        {
          "internalType": "address",
          "name": "",
          "type": "address"
        }
      ],
      "name": "farmers",
      "outputs": [
        {
          "internalType": "bool",
          "name": "",
          "type": "bool"
        }
      ],
      "stateMutability": "view",
      "type": "function"
    },
    {
      "inputs": [],
      "name": "getAllFarmers",
      "outputs": [
        {
          "internalType": "address[]",
          "name": "",
          "type": "address[]"
        }
      ],
      "stateMutability": "view",
      "type": "function"
    },
    {
      "inputs": [
        {
          "internalType": "uint256",
          "name": "_id",
          "type": "uint256"
        }
      ],
      "name": "getBatch",
      "outputs": [
        {
          "components": [
            {
              "internalType": "uint256",
              "name": "id",
              "type": "uint256"
            },
            {
              "internalType": "string",
              "name": "variety",
              "type": "string"
            },
            {
              "internalType": "string",
              "name": "origin",
              "type": "string"
            },
            {
              "internalType": "address",
              "name": "farmer",
              "type": "address"
            },
            {
              "internalType": "address",
              "name": "miller",
              "type": "address"
            },
            {
              "internalType": "uint256",
              "name": "harvestDate",
              "type": "uint256"
            },
            {
              "internalType": "uint256",
              "name": "millingDate",
              "type": "uint256"
            },
            {
              "internalType": "bool",
              "name": "isOrganic",
              "type": "bool"
            },
            {
              "internalType": "enum RiceTracking.State",
              "name": "state",
              "type": "uint8"
            },
            {
              "internalType": "string",
              "name": "ipfsHash",
              "type": "string"
            }
          ],
          "internalType": "struct RiceTracking.RiceBatch",
          "name": "",
          "type": "tuple"
        }
      ],
      "stateMutability": "view",
      "type": "function"
    },
    {
      "inputs": [],
      "name": "getRequesters",
      "outputs": [
        {
          "internalType": "address[]",
          "name": "",
          "type": "address[]"
        }
      ],
      "stateMutability": "view",
      "type": "function"
    },
    {
      "inputs": [
        {
          "internalType": "address",
          "name": "",
          "type": "address"
        }
      ],
      "name": "millers",
      "outputs": [
        {
          "internalType": "bool",
          "name": "",
          "type": "bool"
        }
      ],
      "stateMutability": "view",
      "type": "function"
    },
    {
      "inputs": [
        {
          "internalType": "address",
          "name": "",
          "type": "address"
        }
      ],
      "name": "pendingFarmers",
      "outputs": [
        {
          "internalType": "bool",
          "name": "",
          "type": "bool"
        }
      ],
      "stateMutability": "view",
      "type": "function"
    },
    {
      "inputs": [
        {
          "internalType": "address",
          "name": "_farmer",
          "type": "address"
        }
      ],
      "name": "removeFarmer",
      "outputs": [],
      "stateMutability": "nonpayable",
      "type": "function"
    },
    {
      "inputs": [],
      "name": "requestFarmerRole",
      "outputs": [],
      "stateMutability": "nonpayable",
      "type": "function"
    },
    {
      "inputs": [
        {
          "internalType": "uint256",
          "name": "",
          "type": "uint256"
        }
      ],
      "name": "requesterList",
      "outputs": [
        {
          "internalType": "address",
          "name": "",
          "type": "address"
        }
      ],
      "stateMutability": "view",
      "type": "function"
    },
    {
      "inputs": [
        {
          "internalType": "uint256",
          "name": "_id",
          "type": "uint256"
        },
        {
          "internalType": "string",
          "name": "_variety",
          "type": "string"
        },
        {
          "internalType": "string",
          "name": "_origin",
          "type": "string"
        },
        {
          "internalType": "bool",
          "name": "_isOrganic",
          "type": "bool"
        },
        {
          "internalType": "string",
          "name": "_ipfsHash",
          "type": "string"
        }
      ],
      "name": "updateBatch",
      "outputs": [],
      "stateMutability": "nonpayable",
      "type": "function"
    }
  ],
  "bytecode": "0x608060405234801561001057600080fd5b5033600260006101000a81548173ffffffffffffffffffffffffffffffffffffffff021916908373ffffffffffffffffffffffffffffffffffffffff160217905550612ad9806100616000396000f3fe608060405234801561001057600080fd5b506004361061010b5760003560e01c806373be9df7116100a2578063cb0830a311610071578063cb0830a3146102d3578063d06b1da8146102f1578063df320db01461030d578063e6bf3fdc1461033d578063f851a440146103595761010b565b806373be9df71461021e57806380c3f96d1461024e578063b32c4d8d1461026a578063bfd5265d146102a35761010b565b8063401b2168116100de578063401b21681461018457806345d01e00146101b4578063536954e4146101d05780635ac44282146101ee5761010b565b806306f130561461011057806331f2e1071461012e5780633cdc16471461014a5780633df87e5214610154575b600080fd5b610118610377565b6040516101259190611abd565b60405180910390f35b61014860048036038101906101439190611c6a565b61037d565b005b6101526106b2565b005b61016e60048036038101906101699190611d83565b610889565b60405161017b9190611dbf565b60405180910390f35b61019e60048036038101906101999190611d83565b6108a9565b6040516101ab9190611dbf565b60405180910390f35b6101ce60048036038101906101c99190611e06565b6108c9565b005b6101d8610aad565b6040516101e59190611f93565b60405180910390f35b61020860048036038101906102039190611fb5565b610b3b565b60405161021591906121de565b60405180910390f35b61023860048036038101906102339190611fb5565b610e3e565b604051610245919061220f565b60405180910390f35b61026860048036038101906102639190611d83565b610e7d565b005b610284600480360381019061027f9190611fb5565b6110d3565b60405161029a9a99989796959493929190612283565b60405180910390f35b6102bd60048036038101906102b89190611d83565b611319565b6040516102ca9190611dbf565b60405180910390f35b6102db611339565b6040516102e89190611f93565b60405180910390f35b61030b60048036038101906103069190611fb5565b6113c7565b005b61032760048036038101906103229190611fb5565b611529565b604051610334919061220f565b60405180910390f35b61035760048036038101906103529190611d83565b611568565b005b610361611866565b60405161036e919061220f565b60405180910390f35b60015481565b600360003373ffffffffffffffffffffffffffffffffffffffff1673ffffffffffffffffffffffffffffffffffffffff16815260200190815260200160002060009054906101000a900460ff16806104225750600260009054906101000a900473ffffffffffffffffffffffffffffffffffffffff1673ffffffffffffffffffffffffffffffffffffffff163373ffffffffffffffffffffffffffffffffffffffff16145b610461576040517f08c379a000000000000000000000000000000000000000000000000000000000815260040161045890612380565b60405180910390fd5b60016000815480929190610474906123cf565b919050555060405180610140016040528060015481526020018581526020018481526020013373ffffffffffffffffffffffffffffffffffffffff168152602001600073ffffffffffffffffffffffffffffffffffffffff168152602001428152602001600081526020018315158152602001600060038111156104fb576104fa61207f565b5b81526020018281525060008060015481526020019081526020016000206000820151816000015560208201518160010190816105379190612623565b50604082015181600201908161054d9190612623565b5060608201518160030160006101000a81548173ffffffffffffffffffffffffffffffffffffffff021916908373ffffffffffffffffffffffffffffffffffffffff16021790555060808201518160040160006101000a81548173ffffffffffffffffffffffffffffffffffffffff021916908373ffffffffffffffffffffffffffffffffffffffff16021790555060a0820151816005015560c0820151816006015560e08201518160070160006101000a81548160ff0219169083151502179055506101008201518160070160016101000a81548160ff0219169083600381111561063c5761063b61207f565b5b02179055506101208201518160080190816106579190612623565b509050503373ffffffffffffffffffffffffffffffffffffffff166001547fe981be9abf0f5c4b005e8936ac5840dd88aea9197be6b28fd3ace7a7a3d6bef9866040516106a491906126f5565b60405180910390a350505050565b600360003373ffffffffffffffffffffffffffffffffffffffff1673ffffffffffffffffffffffffffffffffffffffff16815260200190815260200160002060009054906101000a900460ff161561073f576040517f08c379a000000000000000000000000000000000000000000000000000000000815260040161073690612763565b60405180910390fd5b600660003373ffffffffffffffffffffffffffffffffffffffff1673ffffffffffffffffffffffffffffffffffffffff16815260200190815260200160002060009054906101000a900460ff16156107cc576040517f08c379a00000000000000000000000000000000000000000000000000000000081526004016107c3906127f5565b60405180910390fd5b6001600660003373ffffffffffffffffffffffffffffffffffffffff1673ffffffffffffffffffffffffffffffffffffffff16815260200190815260200160002060006101000a81548160ff0219169083151502179055506007339080600181540180825580915050600190039060005260206000200160009091909190916101000a81548173ffffffffffffffffffffffffffffffffffffffff021916908373ffffffffffffffffffffffffffffffffffffffff160217905550565b60056020528060005260406000206000915054906101000a900460ff1681565b60036020528060005260406000206000915054906101000a900460ff1681565b600080600087815260200190815260200160002090506000816000015403610926576040517f08c379a000000000000000000000000000000000000000000000000000000000815260040161091d90612861565b60405180910390fd5b600260009054906101000a900473ffffffffffffffffffffffffffffffffffffffff1673ffffffffffffffffffffffffffffffffffffffff163373ffffffffffffffffffffffffffffffffffffffff1614806109d157508060030160009054906101000a900473ffffffffffffffffffffffffffffffffffffffff1673ffffffffffffffffffffffffffffffffffffffff163373ffffffffffffffffffffffffffffffffffffffff16145b610a10576040517f08c379a0000000000000000000000000000000000000000000000000000000008152600401610a07906128cd565b60405180910390fd5b84816001019081610a219190612623565b5083816002019081610a339190612623565b50828160070160006101000a81548160ff021916908315150217905550600082511115610aa55781816008019081610a6b9190612623565b50857f93bc2c17407eb3397eaa274e582cfedcc752dea4680d6f38126a5ac64cb4a59a83604051610a9c91906126f5565b60405180910390a25b505050505050565b60606004805480602002602001604051908101604052809291908181526020018280548015610b3157602002820191906000526020600020905b8160009054906101000a900473ffffffffffffffffffffffffffffffffffffffff1673ffffffffffffffffffffffffffffffffffffffff1681526020019060010190808311610ae7575b5050505050905090565b610b43611a11565b6000808381526020019081526020016000206040518061014001604052908160008201548152602001600182018054610b7b90612446565b80601f0160208091040260200160405190810160405280929190818152602001828054610ba790612446565b8015610bf45780601f10610bc957610100808354040283529160200191610bf4565b820191906000526020600020905b815481529060010190602001808311610bd757829003601f168201915b50505050508152602001600282018054610c0d90612446565b80601f0160208091040260200160405190810160405280929190818152602001828054610c3990612446565b8015610c865780601f10610c5b57610100808354040283529160200191610c86565b820191906000526020600020905b815481529060010190602001808311610c6957829003601f168201915b505050505081526020016003820160009054906101000a900473ffffffffffffffffffffffffffffffffffffffff1673ffffffffffffffffffffffffffffffffffffffff1673ffffffffffffffffffffffffffffffffffffffff1681526020016004820160009054906101000a900473ffffffffffffffffffffffffffffffffffffffff1673ffffffffffffffffffffffffffffffffffffffff1673ffffffffffffffffffffffffffffffffffffffff16815260200160058201548152602001600682015481526020016007820160009054906101000a900460ff161515151581526020016007820160019054906101000a900460ff166003811115610d8f57610d8e61207f565b5b6003811115610da157610da061207f565b5b8152602001600882018054610db590612446565b80601f0160208091040260200160405190810160405280929190818152602001828054610de190612446565b8015610e2e5780601f10610e0357610100808354040283529160200191610e2e565b820191906000526020600020905b815481529060010190602001808311610e1157829003601f168201915b5050505050815250509050919050565b60048181548110610e4e57600080fd5b906000526020600020016000915054906101000a900473ffffffffffffffffffffffffffffffffffffffff1681565b600260009054906101000a900473ffffffffffffffffffffffffffffffffffffffff1673ffffffffffffffffffffffffffffffffffffffff163373ffffffffffffffffffffffffffffffffffffffff1614610f0d576040517f08c379a0000000000000000000000000000000000000000000000000000000008152600401610f049061295f565b60405180910390fd5b600360008273ffffffffffffffffffffffffffffffffffffffff1673ffffffffffffffffffffffffffffffffffffffff16815260200190815260200160002060009054906101000a900460ff1661101a576001600360008373ffffffffffffffffffffffffffffffffffffffff1673ffffffffffffffffffffffffffffffffffffffff16815260200190815260200160002060006101000a81548160ff0219169083151502179055506004819080600181540180825580915050600190039060005260206000200160009091909190916101000a81548173ffffffffffffffffffffffffffffffffffffffff021916908373ffffffffffffffffffffffffffffffffffffffff1602179055505b600660008273ffffffffffffffffffffffffffffffffffffffff1673ffffffffffffffffffffffffffffffffffffffff16815260200190815260200160002060009054906101000a900460ff16156110d0576000600660008373ffffffffffffffffffffffffffffffffffffffff1673ffffffffffffffffffffffffffffffffffffffff16815260200190815260200160002060006101000a81548160ff0219169083151502179055506110cf60078261188c565b5b50565b60006020528060005260406000206000915090508060000154908060010180546110fc90612446565b80601f016020809104026020016040519081016040528092919081815260200182805461112890612446565b80156111755780601f1061114a57610100808354040283529160200191611175565b820191906000526020600020905b81548152906001019060200180831161115857829003601f168201915b50505050509080600201805461118a90612446565b80601f01602080910402602001604051908101604052809291908181526020018280546111b690612446565b80156112035780601f106111d857610100808354040283529160200191611203565b820191906000526020600020905b8154815290600101906020018083116111e657829003601f168201915b5050505050908060030160009054906101000a900473ffffffffffffffffffffffffffffffffffffffff16908060040160009054906101000a900473ffffffffffffffffffffffffffffffffffffffff16908060050154908060060154908060070160009054906101000a900460ff16908060070160019054906101000a900460ff169080600801805461129690612446565b80601f01602080910402602001604051908101604052809291908181526020018280546112c290612446565b801561130f5780601f106112e45761010080835404028352916020019161130f565b820191906000526020600020905b8154815290600101906020018083116112f257829003601f168201915b505050505090508a565b60066020528060005260406000206000915054906101000a900460ff1681565b606060078054806020026020016040519081016040528092919081815260200182805480156113bd57602002820191906000526020600020905b8160009054906101000a900473ffffffffffffffffffffffffffffffffffffffff1673ffffffffffffffffffffffffffffffffffffffff1681526020019060010190808311611373575b5050505050905090565b600260009054906101000a900473ffffffffffffffffffffffffffffffffffffffff1673ffffffffffffffffffffffffffffffffffffffff163373ffffffffffffffffffffffffffffffffffffffff1614611457576040517f08c379a000000000000000000000000000000000000000000000000000000000815260040161144e9061295f565b60405180910390fd5b6000806000838152602001908152602001600020905060008160000154036114b4576040517f08c379a00000000000000000000000000000000000000000000000000000000081526004016114ab90612861565b60405180910390fd5b60038160070160016101000a81548160ff021916908360038111156114dc576114db61207f565b5b02179055503373ffffffffffffffffffffffffffffffffffffffff16827fe24e1e0ead24ddb181df17284049eacf3c81331226932db757739d6e4d65061860405160405180910390a35050565b6007818154811061153957600080fd5b906000526020600020016000915054906101000a900473ffffffffffffffffffffffffffffffffffffffff1681565b600260009054906101000a900473ffffffffffffffffffffffffffffffffffffffff1673ffffffffffffffffffffffffffffffffffffffff163373ffffffffffffffffffffffffffffffffffffffff16146115f8576040517f08c379a00000000000000000000000000000000000000000000000000000000081526004016115ef9061295f565b60405180910390fd5b600360008273ffffffffffffffffffffffffffffffffffffffff1673ffffffffffffffffffffffffffffffffffffffff16815260200190815260200160002060009054906101000a900460ff16611684576040517f08c379a000000000000000000000000000000000000000000000000000000000815260040161167b906129f1565b60405180910390fd5b6000600360008373ffffffffffffffffffffffffffffffffffffffff1673ffffffffffffffffffffffffffffffffffffffff16815260200190815260200160002060006101000a81548160ff02191690831515021790555060005b600480549050811015611862578173ffffffffffffffffffffffffffffffffffffffff166004828154811061171757611716612a11565b5b9060005260206000200160009054906101000a900473ffffffffffffffffffffffffffffffffffffffff1673ffffffffffffffffffffffffffffffffffffffff160361185557600460016004805490506117719190612a40565b8154811061178257611781612a11565b5b9060005260206000200160009054906101000a900473ffffffffffffffffffffffffffffffffffffffff16600482815481106117c1576117c0612a11565b5b9060005260206000200160006101000a81548173ffffffffffffffffffffffffffffffffffffffff021916908373ffffffffffffffffffffffffffffffffffffffff160217905550600480548061181b5761181a612a74565b5b6001900381819060005260206000200160006101000a81549073ffffffffffffffffffffffffffffffffffffffff02191690559055611862565b80806001019150506116df565b5050565b600260009054906101000a900473ffffffffffffffffffffffffffffffffffffffff1681565b60005b8280549050811015611a0c578173ffffffffffffffffffffffffffffffffffffffff168382815481106118c5576118c4612a11565b5b9060005260206000200160009054906101000a900473ffffffffffffffffffffffffffffffffffffffff1673ffffffffffffffffffffffffffffffffffffffff16036119ff57826001848054905061191d9190612a40565b8154811061192e5761192d612a11565b5b9060005260206000200160009054906101000a900473ffffffffffffffffffffffffffffffffffffffff1683828154811061196c5761196b612a11565b5b9060005260206000200160006101000a81548173ffffffffffffffffffffffffffffffffffffffff021916908373ffffffffffffffffffffffffffffffffffffffff160217905550828054806119c5576119c4612a74565b5b6001900381819060005260206000200160006101000a81549073ffffffffffffffffffffffffffffffffffffffff02191690559055611a0c565b808060010191505061188f565b505050565b604051806101400160405280600081526020016060815260200160608152602001600073ffffffffffffffffffffffffffffffffffffffff168152602001600073ffffffffffffffffffffffffffffffffffffffff168152602001600081526020016000815260200160001515815260200160006003811115611a9757611a9661207f565b5b8152602001606081525090565b6000819050919050565b611ab781611aa4565b82525050565b6000602082019050611ad26000830184611aae565b92915050565b6000604051905090565b600080fd5b600080fd5b600080fd5b600080fd5b6000601f19601f8301169050919050565b7f4e487b7100000000000000000000000000000000000000000000000000000000600052604160045260246000fd5b611b3f82611af6565b810181811067ffffffffffffffff82111715611b5e57611b5d611b07565b5b80604052505050565b6000611b71611ad8565b9050611b7d8282611b36565b919050565b600067ffffffffffffffff821115611b9d57611b9c611b07565b5b611ba682611af6565b9050602081019050919050565b82818337600083830152505050565b6000611bd5611bd084611b82565b611b67565b905082815260208101848484011115611bf157611bf0611af1565b5b611bfc848285611bb3565b509392505050565b600082601f830112611c1957611c18611aec565b5b8135611c29848260208601611bc2565b91505092915050565b60008115159050919050565b611c4781611c32565b8114611c5257600080fd5b50565b600081359050611c6481611c3e565b92915050565b60008060008060808587031215611c8457611c83611ae2565b5b600085013567ffffffffffffffff811115611ca257611ca1611ae7565b5b611cae87828801611c04565b945050602085013567ffffffffffffffff811115611ccf57611cce611ae7565b5b611cdb87828801611c04565b9350506040611cec87828801611c55565b925050606085013567ffffffffffffffff811115611d0d57611d0c611ae7565b5b611d1987828801611c04565b91505092959194509250565b600073ffffffffffffffffffffffffffffffffffffffff82169050919050565b6000611d5082611d25565b9050919050565b611d6081611d45565b8114611d6b57600080fd5b50565b600081359050611d7d81611d57565b92915050565b600060208284031215611d9957611d98611ae2565b5b6000611da784828501611d6e565b91505092915050565b611db981611c32565b82525050565b6000602082019050611dd46000830184611db0565b92915050565b611de381611aa4565b8114611dee57600080fd5b50565b600081359050611e0081611dda565b92915050565b600080600080600060a08688031215611e2257611e21611ae2565b5b6000611e3088828901611df1565b955050602086013567ffffffffffffffff811115611e5157611e50611ae7565b5b611e5d88828901611c04565b945050604086013567ffffffffffffffff811115611e7e57611e7d611ae7565b5b611e8a88828901611c04565b9350506060611e9b88828901611c55565b925050608086013567ffffffffffffffff811115611ebc57611ebb611ae7565b5b611ec888828901611c04565b9150509295509295909350565b600081519050919050565b600082825260208201905092915050565b6000819050602082019050919050565b611f0a81611d45565b82525050565b6000611f1c8383611f01565b60208301905092915050565b6000602082019050919050565b6000611f4082611ed5565b611f4a8185611ee0565b9350611f5583611ef1565b8060005b83811015611f86578151611f6d8882611f10565b9750611f7883611f28565b925050600181019050611f59565b5085935050505092915050565b60006020820190508181036000830152611fad8184611f35565b905092915050565b600060208284031215611fcb57611fca611ae2565b5b6000611fd984828501611df1565b91505092915050565b611feb81611aa4565b82525050565b600081519050919050565b600082825260208201905092915050565b60005b8381101561202b578082015181840152602081019050612010565b60008484015250505050565b600061204282611ff1565b61204c8185611ffc565b935061205c81856020860161200d565b61206581611af6565b840191505092915050565b61207981611c32565b82525050565b7f4e487b7100000000000000000000000000000000000000000000000000000000600052602160045260246000fd5b600481106120bf576120be61207f565b5b50565b60008190506120d0826120ae565b919050565b60006120e0826120c2565b9050919050565b6120f0816120d5565b82525050565b60006101408301600083015161210f6000860182611fe2565b50602083015184820360208601526121278282612037565b915050604083015184820360408601526121418282612037565b91505060608301516121566060860182611f01565b5060808301516121696080860182611f01565b5060a083015161217c60a0860182611fe2565b5060c083015161218f60c0860182611fe2565b5060e08301516121a260e0860182612070565b506101008301516121b76101008601826120e7565b506101208301518482036101208601526121d18282612037565b9150508091505092915050565b600060208201905081810360008301526121f881846120f6565b905092915050565b61220981611d45565b82525050565b60006020820190506122246000830184612200565b92915050565b600082825260208201905092915050565b600061224682611ff1565b612250818561222a565b935061226081856020860161200d565b61226981611af6565b840191505092915050565b61227d816120d5565b82525050565b600061014082019050612299600083018d611aae565b81810360208301526122ab818c61223b565b905081810360408301526122bf818b61223b565b90506122ce606083018a612200565b6122db6080830189612200565b6122e860a0830188611aae565b6122f560c0830187611aae565b61230260e0830186611db0565b612310610100830185612274565b818103610120830152612323818461223b565b90509b9a5050505050505050505050565b7f4b68c3b46e672063c3b320717579e1bb816e0000000000000000000000000000600082015250565b600061236a60128361222a565b915061237582612334565b602082019050919050565b600060208201905081810360008301526123998161235d565b9050919050565b7f4e487b7100000000000000000000000000000000000000000000000000000000600052601160045260246000fd5b60006123da82611aa4565b91507fffffffffffffffffffffffffffffffffffffffffffffffffffffffffffffffff820361240c5761240b6123a0565b5b600182019050919050565b7f4e487b7100000000000000000000000000000000000000000000000000000000600052602260045260246000fd5b6000600282049050600182168061245e57607f821691505b60208210810361247157612470612417565b5b50919050565b60008190508160005260206000209050919050565b60006020601f8301049050919050565b600082821b905092915050565b6000600883026124d97fffffffffffffffffffffffffffffffffffffffffffffffffffffffffffffffff8261249c565b6124e3868361249c565b95508019841693508086168417925050509392505050565b6000819050919050565b600061252061251b61251684611aa4565b6124fb565b611aa4565b9050919050565b6000819050919050565b61253a83612505565b61254e61254682612527565b8484546124a9565b825550505050565b600090565b612563612556565b61256e818484612531565b505050565b5b818110156125925761258760008261255b565b600181019050612574565b5050565b601f8211156125d7576125a881612477565b6125b18461248c565b810160208510156125c0578190505b6125d46125cc8561248c565b830182612573565b50505b505050565b600082821c905092915050565b60006125fa600019846008026125dc565b1980831691505092915050565b600061261383836125e9565b9150826002028217905092915050565b61262c82611ff1565b67ffffffffffffffff81111561264557612644611b07565b5b61264f8254612446565b61265a828285612596565b600060209050601f83116001811461268d576000841561267b578287015190505b6126858582612607565b8655506126ed565b601f19841661269b86612477565b60005b828110156126c35784890151825560018201915060208501945060208101905061269e565b868310156126e057848901516126dc601f8916826125e9565b8355505b6001600288020188555050505b505050505050565b6000602082019050818103600083015261270f818461223b565b905092915050565b7f42e1baa16e20c491c3a3206cc3a0204ec3b46e672044c3a26e2072e1bb936900600082015250565b600061274d601f8361222a565b915061275882612717565b602082019050919050565b6000602082019050818103600083015261277c81612740565b9050919050565b7f59c3aa752063e1baa77520c491616e6720c491c6b0e1bba3632078e1bbad206c60008201527fc3bd000000000000000000000000000000000000000000000000000000000000602082015250565b60006127df60228361222a565b91506127ea82612783565b604082019050919050565b6000602082019050818103600083015261280e816127d2565b9050919050565b7f4cc3b42068c3a06e67206b68c3b46e672074e1bb936e2074e1baa16900000000600082015250565b600061284b601c8361222a565b915061285682612815565b602082019050919050565b6000602082019050818103600083015261287a8161283e565b9050919050565b7f4b68c3b46e67206368c3ad6e68206368e1bba700000000000000000000000000600082015250565b60006128b760138361222a565b91506128c282612881565b602082019050919050565b600060208201905081810360008301526128e6816128aa565b9050919050565b7f4368e1bb892041646d696e206de1bb9b692063c3b320717579e1bb816e206ec360008201527fa079000000000000000000000000000000000000000000000000000000000000602082015250565b600061294960228361222a565b9150612954826128ed565b604082019050919050565b600060208201905081810360008301526129788161293c565b9050919050565b7f56c3ad206ec3a079206b68c3b46e67207068e1baa369204ec3b46e672044c3a260008201527f6e00000000000000000000000000000000000000000000000000000000000000602082015250565b60006129db60218361222a565b91506129e68261297f565b604082019050919050565b60006020820190508181036000830152612a0a816129ce565b9050919050565b7f4e487b7100000000000000000000000000000000000000000000000000000000600052603260045260246000fd5b6000612a4b82611aa4565b9150612a5683611aa4565b9250828203905081811115612a6e57612a6d6123a0565b5b92915050565b7f4e487b7100000000000000000000000000000000000000000000000000000000600052603160045260246000fdfea2646970667358221220cef2009317bee095e35b768b4e72a92d2303bf7e2f1449f054f40e09a8a5af8f64736f6c63430008180033",
  "linkReferences": {},
  "deployedLinkReferences": {}
}