{
  "_format": "hh-sol-artifact-1",
  "contractName": "RiceTracking",
  "sourceName": "contracts/RiceTracking.sol",
  "abi": [
    {
      "inputs": [],
      "stateMutability": "nonpayable",
      "type": "constructor"
    },
    {
      "anonymous": false,
      "inputs": [
        {
          "indexed": true,
          "internalType": "uint256",
          "name": "id",
          "type": "uint256"
        },
        {
          "indexed": true,
          "internalType": "address",
          "name": "deleter",
          "type": "address"
        }
      ],
      "name": "BatchDeleted",
      "type": "event"
    },
    {
      "anonymous": false,
      "inputs": [
        {
          "indexed": true,
          "internalType": "uint256",
          "name": "id",
          "type": "uint256"
        },
        {
          "indexed": false,
          "internalType": "string",
          "name": "newIpfsHash",
          "type": "string"
        }
      ],
      "name": "BatchImageUpdated",
      "type": "event"
    },
    {
      "anonymous": false,
      "inputs": [
        {
          "indexed": true,
          "internalType": "uint256",
          "name": "id",
          "type": "uint256"
        },
        {
          "indexed": false,
          "internalType": "string",
          "name": "variety",
          "type": "string"
        },
        {
          "indexed": true,
          "internalType": "address",
          "name": "farmer",
          "type": "address"
        }
      ],
      "name": "PaddyCreated",
      "type": "event"
    },
    {
      "anonymous": false,
      "inputs": [
        {
          "indexed": true,
          "internalType": "uint256",
          "name": "id",
          "type": "uint256"
        },
        {
          "indexed": true,
          "internalType": "address",
          "name": "miller",
          "type": "address"
        }
      ],
      "name": "RiceProcessed",
      "type": "event"
    },
    {
      "anonymous": false,
      "inputs": [
        {
          "indexed": false,
          "internalType": "bytes32",
          "name": "role",
          "type": "bytes32"
        },
        {
          "indexed": true,
          "internalType": "address",
          "name": "account",
          "type": "address"
        }
      ],
      "name": "RoleGranted",
      "type": "event"
    },
    {
      "anonymous": false,
      "inputs": [
        {
          "indexed": false,
          "internalType": "bytes32",
          "name": "role",
          "type": "bytes32"
        },
        {
          "indexed": true,
          "internalType": "address",
          "name": "account",
          "type": "address"
        }
      ],
      "name": "RoleRevoked",
      "type": "event"
    },
    {
      "inputs": [
        {
          "internalType": "address",
          "name": "_farmer",
          "type": "address"
        }
      ],
      "name": "addFarmer",
      "outputs": [],
      "stateMutability": "nonpayable",
      "type": "function"
    },
    {
      "inputs": [
        {
          "internalType": "address",
          "name": "_miller",
          "type": "address"
        }
      ],
      "name": "addMiller",
      "outputs": [],
      "stateMutability": "nonpayable",
      "type": "function"
    },
    {
      "inputs": [],
      "name": "admin",
      "outputs": [
        {
          "internalType": "address",
          "name": "",
          "type": "address"
        }
      ],
      "stateMutability": "view",
      "type": "function"
    },
    {
      "inputs": [],
      "name": "batchCount",
      "outputs": [
        {
          "internalType": "uint256",
          "name": "",
          "type": "uint256"
        }
      ],
      "stateMutability": "view",
      "type": "function"
    },
    {
      "inputs": [
        {
          "internalType": "uint256",
          "name": "",
          "type": "uint256"
        }
      ],
      "name": "batches",
      "outputs": [
        {
          "internalType": "uint256",
          "name": "id",
          "type": "uint256"
        },
        {
          "internalType": "string",
          "name": "variety",
          "type": "string"
        },
        {
          "internalType": "string",
          "name": "origin",
          "type": "string"
        },
        {
          "internalType": "address",
          "name": "farmer",
          "type": "address"
        },
        {
          "internalType": "address",
          "name": "miller",
          "type": "address"
        },
        {
          "internalType": "uint256",
          "name": "harvestDate",
          "type": "uint256"
        },
        {
          "internalType": "uint256",
          "name": "millingDate",
          "type": "uint256"
        },
        {
          "internalType": "bool",
          "name": "isOrganic",
          "type": "bool"
        },
        {
          "internalType": "enum RiceTracking.State",
          "name": "state",
          "type": "uint8"
        },
        {
          "internalType": "string",
          "name": "ipfsHash",
          "type": "string"
        }
      ],
      "stateMutability": "view",
      "type": "function"
    },
    {
      "inputs": [
        {
          "internalType": "string",
          "name": "_variety",
          "type": "string"
        },
        {
          "internalType": "string",
          "name": "_origin",
          "type": "string"
        },
        {
          "internalType": "bool",
          "name": "_isOrganic",
          "type": "bool"
        },
        {
          "internalType": "string",
          "name": "_ipfsHash",
          "type": "string"
        }
      ],
      "name": "createPaddyBatch",
      "outputs": [],
      "stateMutability": "nonpayable",
      "type": "function"
    },
    {
      "inputs": [
        {
          "internalType": "uint256",
          "name": "_id",
          "type": "uint256"
        }
      ],
      "name": "deleteBatch",
      "outputs": [],
      "stateMutability": "nonpayable",
      "type": "function"
    },
    {
      "inputs": [
        {
          "internalType": "address",
          "name": "",
          "type": "address"
        }
      ],
      "name": "farmers",
      "outputs": [
        {
          "internalType": "bool",
          "name": "",
          "type": "bool"
        }
      ],
      "stateMutability": "view",
      "type": "function"
    },
    {
      "inputs": [
        {
          "internalType": "uint256",
          "name": "_id",
          "type": "uint256"
        }
      ],
      "name": "getBatch",
      "outputs": [
        {
          "components": [
            {
              "internalType": "uint256",
              "name": "id",
              "type": "uint256"
            },
            {
              "internalType": "string",
              "name": "variety",
              "type": "string"
            },
            {
              "internalType": "string",
              "name": "origin",
              "type": "string"
            },
            {
              "internalType": "address",
              "name": "farmer",
              "type": "address"
            },
            {
              "internalType": "address",
              "name": "miller",
              "type": "address"
            },
            {
              "internalType": "uint256",
              "name": "harvestDate",
              "type": "uint256"
            },
            {
              "internalType": "uint256",
              "name": "millingDate",
              "type": "uint256"
            },
            {
              "internalType": "bool",
              "name": "isOrganic",
              "type": "bool"
            },
            {
              "internalType": "enum RiceTracking.State",
              "name": "state",
              "type": "uint8"
            },
            {
              "internalType": "string",
              "name": "ipfsHash",
              "type": "string"
            }
          ],
          "internalType": "struct RiceTracking.RiceBatch",
          "name": "",
          "type": "tuple"
        }
      ],
      "stateMutability": "view",
      "type": "function"
    },
    {
      "inputs": [
        {
          "internalType": "address",
          "name": "",
          "type": "address"
        }
      ],
      "name": "millers",
      "outputs": [
        {
          "internalType": "bool",
          "name": "",
          "type": "bool"
        }
      ],
      "stateMutability": "view",
      "type": "function"
    },
    {
      "inputs": [
        {
          "internalType": "uint256",
          "name": "_id",
          "type": "uint256"
        },
        {
          "internalType": "string",
          "name": "_newIpfsHash",
          "type": "string"
        }
      ],
      "name": "processRice",
      "outputs": [],
      "stateMutability": "nonpayable",
      "type": "function"
    },
    {
      "inputs": [
        {
          "internalType": "address",
          "name": "_farmer",
          "type": "address"
        }
      ],
      "name": "removeFarmer",
      "outputs": [],
      "stateMutability": "nonpayable",
      "type": "function"
    },
    {
      "inputs": [
        {
          "internalType": "address",
          "name": "_miller",
          "type": "address"
        }
      ],
      "name": "removeMiller",
      "outputs": [],
      "stateMutability": "nonpayable",
      "type": "function"
    },
    {
      "inputs": [
        {
          "internalType": "uint256",
          "name": "_id",
          "type": "uint256"
        },
        {
          "internalType": "string",
          "name": "_newIpfsHash",
          "type": "string"
        }
      ],
      "name": "updateBatchImage",
      "outputs": [],
      "stateMutability": "nonpayable",
      "type": "function"
    }
  ],
  "bytecode": "0x608060405234801561001057600080fd5b5033600260006101000a81548173ffffffffffffffffffffffffffffffffffffffff021916908373ffffffffffffffffffffffffffffffffffffffff1602179055506122cb806100616000396000f3fe608060405234801561001057600080fd5b50600436106100ea5760003560e01c8063ab5d6bd21161008c578063d06b1da811610066578063d06b1da814610262578063e6bf3fdc1461027e578063f46038d01461029a578063f851a440146102b6576100ea565b8063ab5d6bd2146101f1578063b32c4d8d1461020d578063ca71dda614610246576100ea565b8063401b2168116100c8578063401b21681461015957806357e77565146101895780635ac44282146101a557806380c3f96d146101d5576100ea565b806306f13056146100ef57806331f2e1071461010d5780633df87e5214610129575b600080fd5b6100f76102d4565b6040516101049190611563565b60405180910390f35b61012760048036038101906101229190611710565b6102da565b005b610143600480360381019061013e9190611829565b6105b7565b6040516101509190611865565b60405180910390f35b610173600480360381019061016e9190611829565b6105d7565b6040516101809190611865565b60405180910390f35b6101a3600480360381019061019e91906118ac565b6105f7565b005b6101bf60048036038101906101ba9190611908565b6107f0565b6040516101cc9190611b40565b60405180910390f35b6101ef60048036038101906101ea9190611829565b610af3565b005b61020b60048036038101906102069190611829565b610bde565b005b61022760048036038101906102229190611908565b610cc9565b60405161023d9a99989796959493929190611bca565b60405180910390f35b610260600480360381019061025b9190611829565b610f0f565b005b61027c60048036038101906102779190611908565b610ffa565b005b61029860048036038101906102939190611829565b6111b6565b005b6102b460048036038101906102af91906118ac565b6112a1565b005b6102be611491565b6040516102cb9190611c7b565b60405180910390f35b60015481565b600360003373ffffffffffffffffffffffffffffffffffffffff1673ffffffffffffffffffffffffffffffffffffffff16815260200190815260200160002060009054906101000a900460ff16610366576040517f08c379a000000000000000000000000000000000000000000000000000000000815260040161035d90611ce2565b60405180910390fd5b6001600081548092919061037990611d31565b919050555060405180610140016040528060015481526020018581526020018481526020013373ffffffffffffffffffffffffffffffffffffffff168152602001600073ffffffffffffffffffffffffffffffffffffffff16815260200142815260200160008152602001831515815260200160006003811115610400576103ff6119e1565b5b815260200182815250600080600154815260200190815260200160002060008201518160000155602082015181600101908161043c9190611f85565b5060408201518160020190816104529190611f85565b5060608201518160030160006101000a81548173ffffffffffffffffffffffffffffffffffffffff021916908373ffffffffffffffffffffffffffffffffffffffff16021790555060808201518160040160006101000a81548173ffffffffffffffffffffffffffffffffffffffff021916908373ffffffffffffffffffffffffffffffffffffffff16021790555060a0820151816005015560c0820151816006015560e08201518160070160006101000a81548160ff0219169083151502179055506101008201518160070160016101000a81548160ff02191690836003811115610541576105406119e1565b5b021790555061012082015181600801908161055c9190611f85565b509050503373ffffffffffffffffffffffffffffffffffffffff166001547fe981be9abf0f5c4b005e8936ac5840dd88aea9197be6b28fd3ace7a7a3d6bef9866040516105a99190612057565b60405180910390a350505050565b60046020528060005260406000206000915054906101000a900460ff1681565b60036020528060005260406000206000915054906101000a900460ff1681565b600460003373ffffffffffffffffffffffffffffffffffffffff1673ffffffffffffffffffffffffffffffffffffffff16815260200190815260200160002060009054906101000a900460ff16610683576040517f08c379a000000000000000000000000000000000000000000000000000000000815260040161067a906120c5565b60405180910390fd5b60008060008481526020019081526020016000209050600060038111156106ad576106ac6119e1565b5b8160070160019054906101000a900460ff1660038111156106d1576106d06119e1565b5b14610711576040517f08c379a000000000000000000000000000000000000000000000000000000000815260040161070890612131565b60405180910390fd5b338160040160006101000a81548173ffffffffffffffffffffffffffffffffffffffff021916908373ffffffffffffffffffffffffffffffffffffffff16021790555042816006018190555060018160070160016101000a81548160ff02191690836003811115610785576107846119e1565b5b02179055506000825111156107a757818160080190816107a59190611f85565b505b3373ffffffffffffffffffffffffffffffffffffffff16837fdfa430c3539e7d1f6bbf2f3183535ab293fe4f7fb065e59894eb182d065d885160405160405180910390a3505050565b6107f86114b7565b600080838152602001908152602001600020604051806101400160405290816000820154815260200160018201805461083090611da8565b80601f016020809104026020016040519081016040528092919081815260200182805461085c90611da8565b80156108a95780601f1061087e576101008083540402835291602001916108a9565b820191906000526020600020905b81548152906001019060200180831161088c57829003601f168201915b505050505081526020016002820180546108c290611da8565b80601f01602080910402602001604051908101604052809291908181526020018280546108ee90611da8565b801561093b5780601f106109105761010080835404028352916020019161093b565b820191906000526020600020905b81548152906001019060200180831161091e57829003601f168201915b505050505081526020016003820160009054906101000a900473ffffffffffffffffffffffffffffffffffffffff1673ffffffffffffffffffffffffffffffffffffffff1673ffffffffffffffffffffffffffffffffffffffff1681526020016004820160009054906101000a900473ffffffffffffffffffffffffffffffffffffffff1673ffffffffffffffffffffffffffffffffffffffff1673ffffffffffffffffffffffffffffffffffffffff16815260200160058201548152602001600682015481526020016007820160009054906101000a900460ff161515151581526020016007820160019054906101000a900460ff166003811115610a4457610a436119e1565b5b6003811115610a5657610a556119e1565b5b8152602001600882018054610a6a90611da8565b80601f0160208091040260200160405190810160405280929190818152602001828054610a9690611da8565b8015610ae35780601f10610ab857610100808354040283529160200191610ae3565b820191906000526020600020905b815481529060010190602001808311610ac657829003601f168201915b5050505050815250509050919050565b600260009054906101000a900473ffffffffffffffffffffffffffffffffffffffff1673ffffffffffffffffffffffffffffffffffffffff163373ffffffffffffffffffffffffffffffffffffffff1614610b83576040517f08c379a0000000000000000000000000000000000000000000000000000000008152600401610b7a9061219d565b60405180910390fd5b6001600360008373ffffffffffffffffffffffffffffffffffffffff1673ffffffffffffffffffffffffffffffffffffffff16815260200190815260200160002060006101000a81548160ff02191690831515021790555050565b600260009054906101000a900473ffffffffffffffffffffffffffffffffffffffff1673ffffffffffffffffffffffffffffffffffffffff163373ffffffffffffffffffffffffffffffffffffffff1614610c6e576040517f08c379a0000000000000000000000000000000000000000000000000000000008152600401610c659061219d565b60405180910390fd5b6001600460008373ffffffffffffffffffffffffffffffffffffffff1673ffffffffffffffffffffffffffffffffffffffff16815260200190815260200160002060006101000a81548160ff02191690831515021790555050565b6000602052806000526040600020600091509050806000015490806001018054610cf290611da8565b80601f0160208091040260200160405190810160405280929190818152602001828054610d1e90611da8565b8015610d6b5780601f10610d4057610100808354040283529160200191610d6b565b820191906000526020600020905b815481529060010190602001808311610d4e57829003601f168201915b505050505090806002018054610d8090611da8565b80601f0160208091040260200160405190810160405280929190818152602001828054610dac90611da8565b8015610df95780601f10610dce57610100808354040283529160200191610df9565b820191906000526020600020905b815481529060010190602001808311610ddc57829003601f168201915b5050505050908060030160009054906101000a900473ffffffffffffffffffffffffffffffffffffffff16908060040160009054906101000a900473ffffffffffffffffffffffffffffffffffffffff16908060050154908060060154908060070160009054906101000a900460ff16908060070160019054906101000a900460ff1690806008018054610e8c90611da8565b80601f0160208091040260200160405190810160405280929190818152602001828054610eb890611da8565b8015610f055780601f10610eda57610100808354040283529160200191610f05565b820191906000526020600020905b815481529060010190602001808311610ee857829003601f168201915b505050505090508a565b600260009054906101000a900473ffffffffffffffffffffffffffffffffffffffff1673ffffffffffffffffffffffffffffffffffffffff163373ffffffffffffffffffffffffffffffffffffffff1614610f9f576040517f08c379a0000000000000000000000000000000000000000000000000000000008152600401610f969061219d565b60405180910390fd5b6000600460008373ffffffffffffffffffffffffffffffffffffffff1673ffffffffffffffffffffffffffffffffffffffff16815260200190815260200160002060006101000a81548160ff02191690831515021790555050565b600080600083815260200190815260200160002090506000816000015403611057576040517f08c379a000000000000000000000000000000000000000000000000000000000815260040161104e90612209565b60405180910390fd5b600260009054906101000a900473ffffffffffffffffffffffffffffffffffffffff1673ffffffffffffffffffffffffffffffffffffffff163373ffffffffffffffffffffffffffffffffffffffff16148061110257508060030160009054906101000a900473ffffffffffffffffffffffffffffffffffffffff1673ffffffffffffffffffffffffffffffffffffffff163373ffffffffffffffffffffffffffffffffffffffff16145b611141576040517f08c379a000000000000000000000000000000000000000000000000000000000815260040161113890612275565b60405180910390fd5b60038160070160016101000a81548160ff02191690836003811115611169576111686119e1565b5b02179055503373ffffffffffffffffffffffffffffffffffffffff16827fe24e1e0ead24ddb181df17284049eacf3c81331226932db757739d6e4d65061860405160405180910390a35050565b600260009054906101000a900473ffffffffffffffffffffffffffffffffffffffff1673ffffffffffffffffffffffffffffffffffffffff163373ffffffffffffffffffffffffffffffffffffffff1614611246576040517f08c379a000000000000000000000000000000000000000000000000000000000815260040161123d9061219d565b60405180910390fd5b6000600360008373ffffffffffffffffffffffffffffffffffffffff1673ffffffffffffffffffffffffffffffffffffffff16815260200190815260200160002060006101000a81548160ff02191690831515021790555050565b6000806000848152602001908152602001600020905060008160000154036112fe576040517f08c379a00000000000000000000000000000000000000000000000000000000081526004016112f590612209565b60405180910390fd5b600260009054906101000a900473ffffffffffffffffffffffffffffffffffffffff1673ffffffffffffffffffffffffffffffffffffffff163373ffffffffffffffffffffffffffffffffffffffff1614806113a957508060030160009054906101000a900473ffffffffffffffffffffffffffffffffffffffff1673ffffffffffffffffffffffffffffffffffffffff163373ffffffffffffffffffffffffffffffffffffffff16145b8061140357508060040160009054906101000a900473ffffffffffffffffffffffffffffffffffffffff1673ffffffffffffffffffffffffffffffffffffffff163373ffffffffffffffffffffffffffffffffffffffff16145b611442576040517f08c379a000000000000000000000000000000000000000000000000000000000815260040161143990612275565b60405180910390fd5b818160080190816114539190611f85565b50827f93bc2c17407eb3397eaa274e582cfedcc752dea4680d6f38126a5ac64cb4a59a836040516114849190612057565b60405180910390a2505050565b600260009054906101000a900473ffffffffffffffffffffffffffffffffffffffff1681565b604051806101400160405280600081526020016060815260200160608152602001600073ffffffffffffffffffffffffffffffffffffffff168152602001600073ffffffffffffffffffffffffffffffffffffffff16815260200160008152602001600081526020016000151581526020016000600381111561153d5761153c6119e1565b5b8152602001606081525090565b6000819050919050565b61155d8161154a565b82525050565b60006020820190506115786000830184611554565b92915050565b6000604051905090565b600080fd5b600080fd5b600080fd5b600080fd5b6000601f19601f8301169050919050565b7f4e487b7100000000000000000000000000000000000000000000000000000000600052604160045260246000fd5b6115e58261159c565b810181811067ffffffffffffffff82111715611604576116036115ad565b5b80604052505050565b600061161761157e565b905061162382826115dc565b919050565b600067ffffffffffffffff821115611643576116426115ad565b5b61164c8261159c565b9050602081019050919050565b82818337600083830152505050565b600061167b61167684611628565b61160d565b90508281526020810184848401111561169757611696611597565b5b6116a2848285611659565b509392505050565b600082601f8301126116bf576116be611592565b5b81356116cf848260208601611668565b91505092915050565b60008115159050919050565b6116ed816116d8565b81146116f857600080fd5b50565b60008135905061170a816116e4565b92915050565b6000806000806080858703121561172a57611729611588565b5b600085013567ffffffffffffffff8111156117485761174761158d565b5b611754878288016116aa565b945050602085013567ffffffffffffffff8111156117755761177461158d565b5b611781878288016116aa565b9350506040611792878288016116fb565b925050606085013567ffffffffffffffff8111156117b3576117b261158d565b5b6117bf878288016116aa565b91505092959194509250565b600073ffffffffffffffffffffffffffffffffffffffff82169050919050565b60006117f6826117cb565b9050919050565b611806816117eb565b811461181157600080fd5b50565b600081359050611823816117fd565b92915050565b60006020828403121561183f5761183e611588565b5b600061184d84828501611814565b91505092915050565b61185f816116d8565b82525050565b600060208201905061187a6000830184611856565b92915050565b6118898161154a565b811461189457600080fd5b50565b6000813590506118a681611880565b92915050565b600080604083850312156118c3576118c2611588565b5b60006118d185828601611897565b925050602083013567ffffffffffffffff8111156118f2576118f161158d565b5b6118fe858286016116aa565b9150509250929050565b60006020828403121561191e5761191d611588565b5b600061192c84828501611897565b91505092915050565b61193e8161154a565b82525050565b600081519050919050565b600082825260208201905092915050565b60005b8381101561197e578082015181840152602081019050611963565b60008484015250505050565b600061199582611944565b61199f818561194f565b93506119af818560208601611960565b6119b88161159c565b840191505092915050565b6119cc816117eb565b82525050565b6119db816116d8565b82525050565b7f4e487b7100000000000000000000000000000000000000000000000000000000600052602160045260246000fd5b60048110611a2157611a206119e1565b5b50565b6000819050611a3282611a10565b919050565b6000611a4282611a24565b9050919050565b611a5281611a37565b82525050565b600061014083016000830151611a716000860182611935565b5060208301518482036020860152611a89828261198a565b91505060408301518482036040860152611aa3828261198a565b9150506060830151611ab860608601826119c3565b506080830151611acb60808601826119c3565b5060a0830151611ade60a0860182611935565b5060c0830151611af160c0860182611935565b5060e0830151611b0460e08601826119d2565b50610100830151611b19610100860182611a49565b50610120830151848203610120860152611b33828261198a565b9150508091505092915050565b60006020820190508181036000830152611b5a8184611a58565b905092915050565b600082825260208201905092915050565b6000611b7e82611944565b611b888185611b62565b9350611b98818560208601611960565b611ba18161159c565b840191505092915050565b611bb5816117eb565b82525050565b611bc481611a37565b82525050565b600061014082019050611be0600083018d611554565b8181036020830152611bf2818c611b73565b90508181036040830152611c06818b611b73565b9050611c15606083018a611bac565b611c226080830189611bac565b611c2f60a0830188611554565b611c3c60c0830187611554565b611c4960e0830186611856565b611c57610100830185611bbb565b818103610120830152611c6a8184611b73565b90509b9a5050505050505050505050565b6000602082019050611c906000830184611bac565b92915050565b7f4f6e6c79206661726d6572000000000000000000000000000000000000000000600082015250565b6000611ccc600b83611b62565b9150611cd782611c96565b602082019050919050565b60006020820190508181036000830152611cfb81611cbf565b9050919050565b7f4e487b7100000000000000000000000000000000000000000000000000000000600052601160045260246000fd5b6000611d3c8261154a565b91507fffffffffffffffffffffffffffffffffffffffffffffffffffffffffffffffff8203611d6e57611d6d611d02565b5b600182019050919050565b7f4e487b7100000000000000000000000000000000000000000000000000000000600052602260045260246000fd5b60006002820490506001821680611dc057607f821691505b602082108103611dd357611dd2611d79565b5b50919050565b60008190508160005260206000209050919050565b60006020601f8301049050919050565b600082821b905092915050565b600060088302611e3b7fffffffffffffffffffffffffffffffffffffffffffffffffffffffffffffffff82611dfe565b611e458683611dfe565b95508019841693508086168417925050509392505050565b6000819050919050565b6000611e82611e7d611e788461154a565b611e5d565b61154a565b9050919050565b6000819050919050565b611e9c83611e67565b611eb0611ea882611e89565b848454611e0b565b825550505050565b600090565b611ec5611eb8565b611ed0818484611e93565b505050565b5b81811015611ef457611ee9600082611ebd565b600181019050611ed6565b5050565b601f821115611f3957611f0a81611dd9565b611f1384611dee565b81016020851015611f22578190505b611f36611f2e85611dee565b830182611ed5565b50505b505050565b600082821c905092915050565b6000611f5c60001984600802611f3e565b1980831691505092915050565b6000611f758383611f4b565b9150826002028217905092915050565b611f8e82611944565b67ffffffffffffffff811115611fa757611fa66115ad565b5b611fb18254611da8565b611fbc828285611ef8565b600060209050601f831160018114611fef5760008415611fdd578287015190505b611fe78582611f69565b86555061204f565b601f198416611ffd86611dd9565b60005b8281101561202557848901518255600182019150602085019450602081019050612000565b86831015612042578489015161203e601f891682611f4b565b8355505b6001600288020188555050505b505050505050565b600060208201905081810360008301526120718184611b73565b905092915050565b7f4f6e6c79206d696c6c6572000000000000000000000000000000000000000000600082015250565b60006120af600b83611b62565b91506120ba82612079565b602082019050919050565b600060208201905081810360008301526120de816120a2565b9050919050565b7f496e76616c696420737461746500000000000000000000000000000000000000600082015250565b600061211b600d83611b62565b9150612126826120e5565b602082019050919050565b6000602082019050818103600083015261214a8161210e565b9050919050565b7f4f6e6c792061646d696e00000000000000000000000000000000000000000000600082015250565b6000612187600a83611b62565b915061219282612151565b602082019050919050565b600060208201905081810360008301526121b68161217a565b9050919050565b7f426174636820646f6573206e6f74206578697374000000000000000000000000600082015250565b60006121f3601483611b62565b91506121fe826121bd565b602082019050919050565b60006020820190508181036000830152612222816121e6565b9050919050565b7f556e617574686f72697a65640000000000000000000000000000000000000000600082015250565b600061225f600c83611b62565b915061226a82612229565b602082019050919050565b6000602082019050818103600083015261228e81612252565b905091905056fea264697066735822122037e112caba3d0b056fb9f97ab25b629df11e5af98cbf099a94c76533ede612b264736f6c63430008180033",
  "linkReferences": {},
  "deployedLinkReferences": {}
}