{
  "_format": "hh-sol-artifact-1",
  "contractName": "RiceTracking",
  "sourceName": "contracts/RiceTracking.sol",
  "abi": [
    {
      "inputs": [],
      "stateMutability": "nonpayable",
      "type": "constructor"
    },
    {
      "anonymous": false,
      "inputs": [
        {
          "indexed": true,
          "internalType": "uint256",
          "name": "id",
          "type": "uint256"
        },
        {
          "indexed": false,
          "internalType": "string",
          "name": "variety",
          "type": "string"
        },
        {
          "indexed": true,
          "internalType": "address",
          "name": "farmer",
          "type": "address"
        }
      ],
      "name": "PaddyCreated",
      "type": "event"
    },
    {
      "anonymous": false,
      "inputs": [
        {
          "indexed": true,
          "internalType": "uint256",
          "name": "id",
          "type": "uint256"
        },
        {
          "indexed": true,
          "internalType": "address",
          "name": "miller",
          "type": "address"
        }
      ],
      "name": "RiceProcessed",
      "type": "event"
    },
    {
      "anonymous": false,
      "inputs": [
        {
          "indexed": false,
          "internalType": "bytes32",
          "name": "role",
          "type": "bytes32"
        },
        {
          "indexed": true,
          "internalType": "address",
          "name": "account",
          "type": "address"
        }
      ],
      "name": "RoleGranted",
      "type": "event"
    },
    {
      "anonymous": false,
      "inputs": [
        {
          "indexed": false,
          "internalType": "bytes32",
          "name": "role",
          "type": "bytes32"
        },
        {
          "indexed": true,
          "internalType": "address",
          "name": "account",
          "type": "address"
        }
      ],
      "name": "RoleRevoked",
      "type": "event"
    },
    {
      "inputs": [
        {
          "internalType": "address",
          "name": "_farmer",
          "type": "address"
        }
      ],
      "name": "addFarmer",
      "outputs": [],
      "stateMutability": "nonpayable",
      "type": "function"
    },
    {
      "inputs": [
        {
          "internalType": "address",
          "name": "_miller",
          "type": "address"
        }
      ],
      "name": "addMiller",
      "outputs": [],
      "stateMutability": "nonpayable",
      "type": "function"
    },
    {
      "inputs": [],
      "name": "admin",
      "outputs": [
        {
          "internalType": "address",
          "name": "",
          "type": "address"
        }
      ],
      "stateMutability": "view",
      "type": "function"
    },
    {
      "inputs": [],
      "name": "batchCount",
      "outputs": [
        {
          "internalType": "uint256",
          "name": "",
          "type": "uint256"
        }
      ],
      "stateMutability": "view",
      "type": "function"
    },
    {
      "inputs": [
        {
          "internalType": "uint256",
          "name": "",
          "type": "uint256"
        }
      ],
      "name": "batches",
      "outputs": [
        {
          "internalType": "uint256",
          "name": "id",
          "type": "uint256"
        },
        {
          "internalType": "string",
          "name": "variety",
          "type": "string"
        },
        {
          "internalType": "string",
          "name": "origin",
          "type": "string"
        },
        {
          "internalType": "address",
          "name": "farmer",
          "type": "address"
        },
        {
          "internalType": "address",
          "name": "miller",
          "type": "address"
        },
        {
          "internalType": "uint256",
          "name": "harvestDate",
          "type": "uint256"
        },
        {
          "internalType": "uint256",
          "name": "millingDate",
          "type": "uint256"
        },
        {
          "internalType": "bool",
          "name": "isOrganic",
          "type": "bool"
        },
        {
          "internalType": "enum RiceTracking.State",
          "name": "state",
          "type": "uint8"
        },
        {
          "internalType": "string",
          "name": "ipfsHash",
          "type": "string"
        }
      ],
      "stateMutability": "view",
      "type": "function"
    },
    {
      "inputs": [
        {
          "internalType": "string",
          "name": "_variety",
          "type": "string"
        },
        {
          "internalType": "string",
          "name": "_origin",
          "type": "string"
        },
        {
          "internalType": "bool",
          "name": "_isOrganic",
          "type": "bool"
        },
        {
          "internalType": "string",
          "name": "_ipfsHash",
          "type": "string"
        }
      ],
      "name": "createPaddyBatch",
      "outputs": [],
      "stateMutability": "nonpayable",
      "type": "function"
    },
    {
      "inputs": [
        {
          "internalType": "address",
          "name": "",
          "type": "address"
        }
      ],
      "name": "farmers",
      "outputs": [
        {
          "internalType": "bool",
          "name": "",
          "type": "bool"
        }
      ],
      "stateMutability": "view",
      "type": "function"
    },
    {
      "inputs": [
        {
          "internalType": "uint256",
          "name": "_id",
          "type": "uint256"
        }
      ],
      "name": "getBatch",
      "outputs": [
        {
          "components": [
            {
              "internalType": "uint256",
              "name": "id",
              "type": "uint256"
            },
            {
              "internalType": "string",
              "name": "variety",
              "type": "string"
            },
            {
              "internalType": "string",
              "name": "origin",
              "type": "string"
            },
            {
              "internalType": "address",
              "name": "farmer",
              "type": "address"
            },
            {
              "internalType": "address",
              "name": "miller",
              "type": "address"
            },
            {
              "internalType": "uint256",
              "name": "harvestDate",
              "type": "uint256"
            },
            {
              "internalType": "uint256",
              "name": "millingDate",
              "type": "uint256"
            },
            {
              "internalType": "bool",
              "name": "isOrganic",
              "type": "bool"
            },
            {
              "internalType": "enum RiceTracking.State",
              "name": "state",
              "type": "uint8"
            },
            {
              "internalType": "string",
              "name": "ipfsHash",
              "type": "string"
            }
          ],
          "internalType": "struct RiceTracking.RiceBatch",
          "name": "",
          "type": "tuple"
        }
      ],
      "stateMutability": "view",
      "type": "function"
    },
    {
      "inputs": [
        {
          "internalType": "address",
          "name": "",
          "type": "address"
        }
      ],
      "name": "millers",
      "outputs": [
        {
          "internalType": "bool",
          "name": "",
          "type": "bool"
        }
      ],
      "stateMutability": "view",
      "type": "function"
    },
    {
      "inputs": [
        {
          "internalType": "uint256",
          "name": "_id",
          "type": "uint256"
        },
        {
          "internalType": "string",
          "name": "_newIpfsHash",
          "type": "string"
        }
      ],
      "name": "processRice",
      "outputs": [],
      "stateMutability": "nonpayable",
      "type": "function"
    },
    {
      "inputs": [
        {
          "internalType": "address",
          "name": "_farmer",
          "type": "address"
        }
      ],
      "name": "removeFarmer",
      "outputs": [],
      "stateMutability": "nonpayable",
      "type": "function"
    },
    {
      "inputs": [
        {
          "internalType": "address",
          "name": "_miller",
          "type": "address"
        }
      ],
      "name": "removeMiller",
      "outputs": [],
      "stateMutability": "nonpayable",
      "type": "function"
    }
  ],
  "bytecode": "0x608060405234801561001057600080fd5b5033600260006101000a81548173ffffffffffffffffffffffffffffffffffffffff021916908373ffffffffffffffffffffffffffffffffffffffff160217905550611dd9806100616000396000f3fe608060405234801561001057600080fd5b50600436106100b45760003560e01c806380c3f96d1161007157806380c3f96d1461019f578063ab5d6bd2146101bb578063b32c4d8d146101d7578063ca71dda614610210578063e6bf3fdc1461022c578063f851a44014610248576100b4565b806306f13056146100b957806331f2e107146100d75780633df87e52146100f3578063401b21681461012357806357e77565146101535780635ac442821461016f575b600080fd5b6100c1610266565b6040516100ce9190611149565b60405180910390f35b6100f160048036038101906100ec91906112f6565b61026c565b005b61010d6004803603810190610108919061140f565b610549565b60405161011a919061144b565b60405180910390f35b61013d6004803603810190610138919061140f565b610569565b60405161014a919061144b565b60405180910390f35b61016d60048036038101906101689190611492565b610589565b005b610189600480360381019061018491906114ee565b610782565b6040516101969190611726565b60405180910390f35b6101b960048036038101906101b4919061140f565b610a85565b005b6101d560048036038101906101d0919061140f565b610b70565b005b6101f160048036038101906101ec91906114ee565b610c5b565b6040516102079a999897969594939291906117b0565b60405180910390f35b61022a6004803603810190610225919061140f565b610ea1565b005b6102466004803603810190610241919061140f565b610f8c565b005b610250611077565b60405161025d9190611861565b60405180910390f35b60015481565b600360003373ffffffffffffffffffffffffffffffffffffffff1673ffffffffffffffffffffffffffffffffffffffff16815260200190815260200160002060009054906101000a900460ff166102f8576040517f08c379a00000000000000000000000000000000000000000000000000000000081526004016102ef906118c8565b60405180910390fd5b6001600081548092919061030b90611917565b919050555060405180610140016040528060015481526020018581526020018481526020013373ffffffffffffffffffffffffffffffffffffffff168152602001600073ffffffffffffffffffffffffffffffffffffffff16815260200142815260200160008152602001831515815260200160006002811115610392576103916115c7565b5b81526020018281525060008060015481526020019081526020016000206000820151816000015560208201518160010190816103ce9190611b6b565b5060408201518160020190816103e49190611b6b565b5060608201518160030160006101000a81548173ffffffffffffffffffffffffffffffffffffffff021916908373ffffffffffffffffffffffffffffffffffffffff16021790555060808201518160040160006101000a81548173ffffffffffffffffffffffffffffffffffffffff021916908373ffffffffffffffffffffffffffffffffffffffff16021790555060a0820151816005015560c0820151816006015560e08201518160070160006101000a81548160ff0219169083151502179055506101008201518160070160016101000a81548160ff021916908360028111156104d3576104d26115c7565b5b02179055506101208201518160080190816104ee9190611b6b565b509050503373ffffffffffffffffffffffffffffffffffffffff166001547fe981be9abf0f5c4b005e8936ac5840dd88aea9197be6b28fd3ace7a7a3d6bef98660405161053b9190611c3d565b60405180910390a350505050565b60046020528060005260406000206000915054906101000a900460ff1681565b60036020528060005260406000206000915054906101000a900460ff1681565b600460003373ffffffffffffffffffffffffffffffffffffffff1673ffffffffffffffffffffffffffffffffffffffff16815260200190815260200160002060009054906101000a900460ff16610615576040517f08c379a000000000000000000000000000000000000000000000000000000000815260040161060c90611cab565b60405180910390fd5b600080600084815260200190815260200160002090506000600281111561063f5761063e6115c7565b5b8160070160019054906101000a900460ff166002811115610663576106626115c7565b5b146106a3576040517f08c379a000000000000000000000000000000000000000000000000000000000815260040161069a90611d17565b60405180910390fd5b338160040160006101000a81548173ffffffffffffffffffffffffffffffffffffffff021916908373ffffffffffffffffffffffffffffffffffffffff16021790555042816006018190555060018160070160016101000a81548160ff02191690836002811115610717576107166115c7565b5b021790555060008251111561073957818160080190816107379190611b6b565b505b3373ffffffffffffffffffffffffffffffffffffffff16837fdfa430c3539e7d1f6bbf2f3183535ab293fe4f7fb065e59894eb182d065d885160405160405180910390a3505050565b61078a61109d565b60008083815260200190815260200160002060405180610140016040529081600082015481526020016001820180546107c29061198e565b80601f01602080910402602001604051908101604052809291908181526020018280546107ee9061198e565b801561083b5780601f106108105761010080835404028352916020019161083b565b820191906000526020600020905b81548152906001019060200180831161081e57829003601f168201915b505050505081526020016002820180546108549061198e565b80601f01602080910402602001604051908101604052809291908181526020018280546108809061198e565b80156108cd5780601f106108a2576101008083540402835291602001916108cd565b820191906000526020600020905b8154815290600101906020018083116108b057829003601f168201915b505050505081526020016003820160009054906101000a900473ffffffffffffffffffffffffffffffffffffffff1673ffffffffffffffffffffffffffffffffffffffff1673ffffffffffffffffffffffffffffffffffffffff1681526020016004820160009054906101000a900473ffffffffffffffffffffffffffffffffffffffff1673ffffffffffffffffffffffffffffffffffffffff1673ffffffffffffffffffffffffffffffffffffffff16815260200160058201548152602001600682015481526020016007820160009054906101000a900460ff161515151581526020016007820160019054906101000a900460ff1660028111156109d6576109d56115c7565b5b60028111156109e8576109e76115c7565b5b81526020016008820180546109fc9061198e565b80601f0160208091040260200160405190810160405280929190818152602001828054610a289061198e565b8015610a755780601f10610a4a57610100808354040283529160200191610a75565b820191906000526020600020905b815481529060010190602001808311610a5857829003601f168201915b5050505050815250509050919050565b600260009054906101000a900473ffffffffffffffffffffffffffffffffffffffff1673ffffffffffffffffffffffffffffffffffffffff163373ffffffffffffffffffffffffffffffffffffffff1614610b15576040517f08c379a0000000000000000000000000000000000000000000000000000000008152600401610b0c90611d83565b60405180910390fd5b6001600360008373ffffffffffffffffffffffffffffffffffffffff1673ffffffffffffffffffffffffffffffffffffffff16815260200190815260200160002060006101000a81548160ff02191690831515021790555050565b600260009054906101000a900473ffffffffffffffffffffffffffffffffffffffff1673ffffffffffffffffffffffffffffffffffffffff163373ffffffffffffffffffffffffffffffffffffffff1614610c00576040517f08c379a0000000000000000000000000000000000000000000000000000000008152600401610bf790611d83565b60405180910390fd5b6001600460008373ffffffffffffffffffffffffffffffffffffffff1673ffffffffffffffffffffffffffffffffffffffff16815260200190815260200160002060006101000a81548160ff02191690831515021790555050565b6000602052806000526040600020600091509050806000015490806001018054610c849061198e565b80601f0160208091040260200160405190810160405280929190818152602001828054610cb09061198e565b8015610cfd5780601f10610cd257610100808354040283529160200191610cfd565b820191906000526020600020905b815481529060010190602001808311610ce057829003601f168201915b505050505090806002018054610d129061198e565b80601f0160208091040260200160405190810160405280929190818152602001828054610d3e9061198e565b8015610d8b5780601f10610d6057610100808354040283529160200191610d8b565b820191906000526020600020905b815481529060010190602001808311610d6e57829003601f168201915b5050505050908060030160009054906101000a900473ffffffffffffffffffffffffffffffffffffffff16908060040160009054906101000a900473ffffffffffffffffffffffffffffffffffffffff16908060050154908060060154908060070160009054906101000a900460ff16908060070160019054906101000a900460ff1690806008018054610e1e9061198e565b80601f0160208091040260200160405190810160405280929190818152602001828054610e4a9061198e565b8015610e975780601f10610e6c57610100808354040283529160200191610e97565b820191906000526020600020905b815481529060010190602001808311610e7a57829003601f168201915b505050505090508a565b600260009054906101000a900473ffffffffffffffffffffffffffffffffffffffff1673ffffffffffffffffffffffffffffffffffffffff163373ffffffffffffffffffffffffffffffffffffffff1614610f31576040517f08c379a0000000000000000000000000000000000000000000000000000000008152600401610f2890611d83565b60405180910390fd5b6000600460008373ffffffffffffffffffffffffffffffffffffffff1673ffffffffffffffffffffffffffffffffffffffff16815260200190815260200160002060006101000a81548160ff02191690831515021790555050565b600260009054906101000a900473ffffffffffffffffffffffffffffffffffffffff1673ffffffffffffffffffffffffffffffffffffffff163373ffffffffffffffffffffffffffffffffffffffff161461101c576040517f08c379a000000000000000000000000000000000000000000000000000000000815260040161101390611d83565b60405180910390fd5b6000600360008373ffffffffffffffffffffffffffffffffffffffff1673ffffffffffffffffffffffffffffffffffffffff16815260200190815260200160002060006101000a81548160ff02191690831515021790555050565b600260009054906101000a900473ffffffffffffffffffffffffffffffffffffffff1681565b604051806101400160405280600081526020016060815260200160608152602001600073ffffffffffffffffffffffffffffffffffffffff168152602001600073ffffffffffffffffffffffffffffffffffffffff168152602001600081526020016000815260200160001515815260200160006002811115611123576111226115c7565b5b8152602001606081525090565b6000819050919050565b61114381611130565b82525050565b600060208201905061115e600083018461113a565b92915050565b6000604051905090565b600080fd5b600080fd5b600080fd5b600080fd5b6000601f19601f8301169050919050565b7f4e487b7100000000000000000000000000000000000000000000000000000000600052604160045260246000fd5b6111cb82611182565b810181811067ffffffffffffffff821117156111ea576111e9611193565b5b80604052505050565b60006111fd611164565b905061120982826111c2565b919050565b600067ffffffffffffffff82111561122957611228611193565b5b61123282611182565b9050602081019050919050565b82818337600083830152505050565b600061126161125c8461120e565b6111f3565b90508281526020810184848401111561127d5761127c61117d565b5b61128884828561123f565b509392505050565b600082601f8301126112a5576112a4611178565b5b81356112b584826020860161124e565b91505092915050565b60008115159050919050565b6112d3816112be565b81146112de57600080fd5b50565b6000813590506112f0816112ca565b92915050565b600080600080608085870312156113105761130f61116e565b5b600085013567ffffffffffffffff81111561132e5761132d611173565b5b61133a87828801611290565b945050602085013567ffffffffffffffff81111561135b5761135a611173565b5b61136787828801611290565b9350506040611378878288016112e1565b925050606085013567ffffffffffffffff81111561139957611398611173565b5b6113a587828801611290565b91505092959194509250565b600073ffffffffffffffffffffffffffffffffffffffff82169050919050565b60006113dc826113b1565b9050919050565b6113ec816113d1565b81146113f757600080fd5b50565b600081359050611409816113e3565b92915050565b6000602082840312156114255761142461116e565b5b6000611433848285016113fa565b91505092915050565b611445816112be565b82525050565b6000602082019050611460600083018461143c565b92915050565b61146f81611130565b811461147a57600080fd5b50565b60008135905061148c81611466565b92915050565b600080604083850312156114a9576114a861116e565b5b60006114b78582860161147d565b925050602083013567ffffffffffffffff8111156114d8576114d7611173565b5b6114e485828601611290565b9150509250929050565b6000602082840312156115045761150361116e565b5b60006115128482850161147d565b91505092915050565b61152481611130565b82525050565b600081519050919050565b600082825260208201905092915050565b60005b83811015611564578082015181840152602081019050611549565b60008484015250505050565b600061157b8261152a565b6115858185611535565b9350611595818560208601611546565b61159e81611182565b840191505092915050565b6115b2816113d1565b82525050565b6115c1816112be565b82525050565b7f4e487b7100000000000000000000000000000000000000000000000000000000600052602160045260246000fd5b60038110611607576116066115c7565b5b50565b6000819050611618826115f6565b919050565b60006116288261160a565b9050919050565b6116388161161d565b82525050565b600061014083016000830151611657600086018261151b565b506020830151848203602086015261166f8282611570565b915050604083015184820360408601526116898282611570565b915050606083015161169e60608601826115a9565b5060808301516116b160808601826115a9565b5060a08301516116c460a086018261151b565b5060c08301516116d760c086018261151b565b5060e08301516116ea60e08601826115b8565b506101008301516116ff61010086018261162f565b506101208301518482036101208601526117198282611570565b9150508091505092915050565b60006020820190508181036000830152611740818461163e565b905092915050565b600082825260208201905092915050565b60006117648261152a565b61176e8185611748565b935061177e818560208601611546565b61178781611182565b840191505092915050565b61179b816113d1565b82525050565b6117aa8161161d565b82525050565b6000610140820190506117c6600083018d61113a565b81810360208301526117d8818c611759565b905081810360408301526117ec818b611759565b90506117fb606083018a611792565b6118086080830189611792565b61181560a083018861113a565b61182260c083018761113a565b61182f60e083018661143c565b61183d6101008301856117a1565b8181036101208301526118508184611759565b90509b9a5050505050505050505050565b60006020820190506118766000830184611792565b92915050565b7f4f6e6c79206661726d6572000000000000000000000000000000000000000000600082015250565b60006118b2600b83611748565b91506118bd8261187c565b602082019050919050565b600060208201905081810360008301526118e1816118a5565b9050919050565b7f4e487b7100000000000000000000000000000000000000000000000000000000600052601160045260246000fd5b600061192282611130565b91507fffffffffffffffffffffffffffffffffffffffffffffffffffffffffffffffff8203611954576119536118e8565b5b600182019050919050565b7f4e487b7100000000000000000000000000000000000000000000000000000000600052602260045260246000fd5b600060028204905060018216806119a657607f821691505b6020821081036119b9576119b861195f565b5b50919050565b60008190508160005260206000209050919050565b60006020601f8301049050919050565b600082821b905092915050565b600060088302611a217fffffffffffffffffffffffffffffffffffffffffffffffffffffffffffffffff826119e4565b611a2b86836119e4565b95508019841693508086168417925050509392505050565b6000819050919050565b6000611a68611a63611a5e84611130565b611a43565b611130565b9050919050565b6000819050919050565b611a8283611a4d565b611a96611a8e82611a6f565b8484546119f1565b825550505050565b600090565b611aab611a9e565b611ab6818484611a79565b505050565b5b81811015611ada57611acf600082611aa3565b600181019050611abc565b5050565b601f821115611b1f57611af0816119bf565b611af9846119d4565b81016020851015611b08578190505b611b1c611b14856119d4565b830182611abb565b50505b505050565b600082821c905092915050565b6000611b4260001984600802611b24565b1980831691505092915050565b6000611b5b8383611b31565b9150826002028217905092915050565b611b748261152a565b67ffffffffffffffff811115611b8d57611b8c611193565b5b611b97825461198e565b611ba2828285611ade565b600060209050601f831160018114611bd55760008415611bc3578287015190505b611bcd8582611b4f565b865550611c35565b601f198416611be3866119bf565b60005b82811015611c0b57848901518255600182019150602085019450602081019050611be6565b86831015611c285784890151611c24601f891682611b31565b8355505b6001600288020188555050505b505050505050565b60006020820190508181036000830152611c578184611759565b905092915050565b7f4f6e6c79206d696c6c6572000000000000000000000000000000000000000000600082015250565b6000611c95600b83611748565b9150611ca082611c5f565b602082019050919050565b60006020820190508181036000830152611cc481611c88565b9050919050565b7f496e76616c696420737461746500000000000000000000000000000000000000600082015250565b6000611d01600d83611748565b9150611d0c82611ccb565b602082019050919050565b60006020820190508181036000830152611d3081611cf4565b9050919050565b7f4f6e6c792061646d696e00000000000000000000000000000000000000000000600082015250565b6000611d6d600a83611748565b9150611d7882611d37565b602082019050919050565b60006020820190508181036000830152611d9c81611d60565b905091905056fea2646970667358221220ed19447579823f4036c30bf9d5b08f617fb879dab76c0827b31692dc6d03d60e64736f6c63430008180033",
  "linkReferences": {},
  "deployedLinkReferences": {}
}