{
  "_format": "hh-sol-artifact-1",
  "contractName": "RiceTracking",
  "sourceName": "contracts/RiceTracking.sol",
  "abi": [
    {
      "inputs": [],
      "stateMutability": "nonpayable",
      "type": "constructor"
    },
    {
      "anonymous": false,
      "inputs": [
        {
          "indexed": true,
          "internalType": "uint256",
          "name": "id",
          "type": "uint256"
        },
        {
          "indexed": true,
          "internalType": "address",
          "name": "deleter",
          "type": "address"
        }
      ],
      "name": "BatchDeleted",
      "type": "event"
    },
    {
      "anonymous": false,
      "inputs": [
        {
          "indexed": true,
          "internalType": "uint256",
          "name": "id",
          "type": "uint256"
        },
        {
          "indexed": false,
          "internalType": "string",
          "name": "newIpfsHash",
          "type": "string"
        }
      ],
      "name": "BatchImageUpdated",
      "type": "event"
    },
    {
      "anonymous": false,
      "inputs": [
        {
          "indexed": true,
          "internalType": "uint256",
          "name": "id",
          "type": "uint256"
        },
        {
          "indexed": false,
          "internalType": "string",
          "name": "variety",
          "type": "string"
        },
        {
          "indexed": true,
          "internalType": "address",
          "name": "farmer",
          "type": "address"
        }
      ],
      "name": "PaddyCreated",
      "type": "event"
    },
    {
      "anonymous": false,
      "inputs": [
        {
          "indexed": true,
          "internalType": "uint256",
          "name": "id",
          "type": "uint256"
        },
        {
          "indexed": true,
          "internalType": "address",
          "name": "miller",
          "type": "address"
        }
      ],
      "name": "RiceProcessed",
      "type": "event"
    },
    {
      "anonymous": false,
      "inputs": [
        {
          "indexed": false,
          "internalType": "bytes32",
          "name": "role",
          "type": "bytes32"
        },
        {
          "indexed": true,
          "internalType": "address",
          "name": "account",
          "type": "address"
        }
      ],
      "name": "RoleGranted",
      "type": "event"
    },
    {
      "anonymous": false,
      "inputs": [
        {
          "indexed": false,
          "internalType": "bytes32",
          "name": "role",
          "type": "bytes32"
        },
        {
          "indexed": true,
          "internalType": "address",
          "name": "account",
          "type": "address"
        }
      ],
      "name": "RoleRevoked",
      "type": "event"
    },
    {
      "inputs": [
        {
          "internalType": "address",
          "name": "_farmer",
          "type": "address"
        }
      ],
      "name": "addFarmer",
      "outputs": [],
      "stateMutability": "nonpayable",
      "type": "function"
    },
    {
      "inputs": [
        {
          "internalType": "address",
          "name": "_miller",
          "type": "address"
        }
      ],
      "name": "addMiller",
      "outputs": [],
      "stateMutability": "nonpayable",
      "type": "function"
    },
    {
      "inputs": [],
      "name": "admin",
      "outputs": [
        {
          "internalType": "address",
          "name": "",
          "type": "address"
        }
      ],
      "stateMutability": "view",
      "type": "function"
    },
    {
      "inputs": [],
      "name": "batchCount",
      "outputs": [
        {
          "internalType": "uint256",
          "name": "",
          "type": "uint256"
        }
      ],
      "stateMutability": "view",
      "type": "function"
    },
    {
      "inputs": [
        {
          "internalType": "uint256",
          "name": "",
          "type": "uint256"
        }
      ],
      "name": "batches",
      "outputs": [
        {
          "internalType": "uint256",
          "name": "id",
          "type": "uint256"
        },
        {
          "internalType": "string",
          "name": "variety",
          "type": "string"
        },
        {
          "internalType": "string",
          "name": "origin",
          "type": "string"
        },
        {
          "internalType": "address",
          "name": "farmer",
          "type": "address"
        },
        {
          "internalType": "address",
          "name": "miller",
          "type": "address"
        },
        {
          "internalType": "uint256",
          "name": "harvestDate",
          "type": "uint256"
        },
        {
          "internalType": "uint256",
          "name": "millingDate",
          "type": "uint256"
        },
        {
          "internalType": "bool",
          "name": "isOrganic",
          "type": "bool"
        },
        {
          "internalType": "enum RiceTracking.State",
          "name": "state",
          "type": "uint8"
        },
        {
          "internalType": "string",
          "name": "ipfsHash",
          "type": "string"
        }
      ],
      "stateMutability": "view",
      "type": "function"
    },
    {
      "inputs": [],
      "name": "claimAdmin",
      "outputs": [],
      "stateMutability": "nonpayable",
      "type": "function"
    },
    {
      "inputs": [
        {
          "internalType": "string",
          "name": "_variety",
          "type": "string"
        },
        {
          "internalType": "string",
          "name": "_origin",
          "type": "string"
        },
        {
          "internalType": "bool",
          "name": "_isOrganic",
          "type": "bool"
        },
        {
          "internalType": "string",
          "name": "_ipfsHash",
          "type": "string"
        }
      ],
      "name": "createPaddyBatch",
      "outputs": [],
      "stateMutability": "nonpayable",
      "type": "function"
    },
    {
      "inputs": [
        {
          "internalType": "uint256",
          "name": "_id",
          "type": "uint256"
        }
      ],
      "name": "deleteBatch",
      "outputs": [],
      "stateMutability": "nonpayable",
      "type": "function"
    },
    {
      "inputs": [
        {
          "internalType": "uint256",
          "name": "",
          "type": "uint256"
        }
      ],
      "name": "farmerList",
      "outputs": [
        {
          "internalType": "address",
          "name": "",
          "type": "address"
        }
      ],
      "stateMutability": "view",
      "type": "function"
    },
    {
      "inputs": [
        {
          "internalType": "address",
          "name": "",
          "type": "address"
        }
      ],
      "name": "farmers",
      "outputs": [
        {
          "internalType": "bool",
          "name": "",
          "type": "bool"
        }
      ],
      "stateMutability": "view",
      "type": "function"
    },
    {
      "inputs": [],
      "name": "getAllFarmers",
      "outputs": [
        {
          "internalType": "address[]",
          "name": "",
          "type": "address[]"
        }
      ],
      "stateMutability": "view",
      "type": "function"
    },
    {
      "inputs": [
        {
          "internalType": "uint256",
          "name": "_id",
          "type": "uint256"
        }
      ],
      "name": "getBatch",
      "outputs": [
        {
          "components": [
            {
              "internalType": "uint256",
              "name": "id",
              "type": "uint256"
            },
            {
              "internalType": "string",
              "name": "variety",
              "type": "string"
            },
            {
              "internalType": "string",
              "name": "origin",
              "type": "string"
            },
            {
              "internalType": "address",
              "name": "farmer",
              "type": "address"
            },
            {
              "internalType": "address",
              "name": "miller",
              "type": "address"
            },
            {
              "internalType": "uint256",
              "name": "harvestDate",
              "type": "uint256"
            },
            {
              "internalType": "uint256",
              "name": "millingDate",
              "type": "uint256"
            },
            {
              "internalType": "bool",
              "name": "isOrganic",
              "type": "bool"
            },
            {
              "internalType": "enum RiceTracking.State",
              "name": "state",
              "type": "uint8"
            },
            {
              "internalType": "string",
              "name": "ipfsHash",
              "type": "string"
            }
          ],
          "internalType": "struct RiceTracking.RiceBatch",
          "name": "",
          "type": "tuple"
        }
      ],
      "stateMutability": "view",
      "type": "function"
    },
    {
      "inputs": [],
      "name": "getRequesters",
      "outputs": [
        {
          "internalType": "address[]",
          "name": "",
          "type": "address[]"
        }
      ],
      "stateMutability": "view",
      "type": "function"
    },
    {
      "inputs": [
        {
          "internalType": "address",
          "name": "",
          "type": "address"
        }
      ],
      "name": "millers",
      "outputs": [
        {
          "internalType": "bool",
          "name": "",
          "type": "bool"
        }
      ],
      "stateMutability": "view",
      "type": "function"
    },
    {
      "inputs": [
        {
          "internalType": "address",
          "name": "",
          "type": "address"
        }
      ],
      "name": "pendingFarmers",
      "outputs": [
        {
          "internalType": "bool",
          "name": "",
          "type": "bool"
        }
      ],
      "stateMutability": "view",
      "type": "function"
    },
    {
      "inputs": [
        {
          "internalType": "uint256",
          "name": "_id",
          "type": "uint256"
        },
        {
          "internalType": "string",
          "name": "_newIpfsHash",
          "type": "string"
        }
      ],
      "name": "processRice",
      "outputs": [],
      "stateMutability": "nonpayable",
      "type": "function"
    },
    {
      "inputs": [
        {
          "internalType": "address",
          "name": "_farmer",
          "type": "address"
        }
      ],
      "name": "removeFarmer",
      "outputs": [],
      "stateMutability": "nonpayable",
      "type": "function"
    },
    {
      "inputs": [
        {
          "internalType": "address",
          "name": "_miller",
          "type": "address"
        }
      ],
      "name": "removeMiller",
      "outputs": [],
      "stateMutability": "nonpayable",
      "type": "function"
    },
    {
      "inputs": [],
      "name": "requestFarmerRole",
      "outputs": [],
      "stateMutability": "nonpayable",
      "type": "function"
    },
    {
      "inputs": [
        {
          "internalType": "uint256",
          "name": "",
          "type": "uint256"
        }
      ],
      "name": "requesterList",
      "outputs": [
        {
          "internalType": "address",
          "name": "",
          "type": "address"
        }
      ],
      "stateMutability": "view",
      "type": "function"
    },
    {
      "inputs": [
        {
          "internalType": "uint256",
          "name": "_id",
          "type": "uint256"
        },
        {
          "internalType": "string",
          "name": "_variety",
          "type": "string"
        },
        {
          "internalType": "string",
          "name": "_origin",
          "type": "string"
        },
        {
          "internalType": "bool",
          "name": "_isOrganic",
          "type": "bool"
        },
        {
          "internalType": "string",
          "name": "_ipfsHash",
          "type": "string"
        }
      ],
      "name": "updateBatch",
      "outputs": [],
      "stateMutability": "nonpayable",
      "type": "function"
    }
  ],
  "bytecode": "0x608060405234801561001057600080fd5b5033600260006101000a81548173ffffffffffffffffffffffffffffffffffffffff021916908373ffffffffffffffffffffffffffffffffffffffff1602179055506131f4806100616000396000f3fe608060405234801561001057600080fd5b50600436106101375760003560e01c806377f50f97116100b8578063ca71dda61161007c578063ca71dda614610341578063cb0830a31461035d578063d06b1da81461037b578063df320db014610397578063e6bf3fdc146103c7578063f851a440146103e357610137565b806377f50f971461029657806380c3f96d146102a0578063ab5d6bd2146102bc578063b32c4d8d146102d8578063bfd5265d1461031157610137565b806345d01e00116100ff57806345d01e00146101e0578063536954e4146101fc57806357e775651461021a5780635ac442821461023657806373be9df71461026657610137565b806306f130561461013c57806331f2e1071461015a5780633cdc1647146101765780633df87e5214610180578063401b2168146101b0575b600080fd5b610144610401565b604051610151919061203e565b60405180910390f35b610174600480360381019061016f91906121eb565b610407565b005b61017e61073c565b005b61019a60048036038101906101959190612304565b610913565b6040516101a79190612340565b60405180910390f35b6101ca60048036038101906101c59190612304565b610933565b6040516101d79190612340565b60405180910390f35b6101fa60048036038101906101f59190612387565b610953565b005b610204610b8b565b6040516102119190612514565b60405180910390f35b610234600480360381019061022f9190612536565b610c19565b005b610250600480360381019061024b9190612592565b610e12565b60405161025d91906127bb565b60405180910390f35b610280600480360381019061027b9190612592565b611115565b60405161028d91906127ec565b60405180910390f35b61029e611154565b005b6102ba60048036038101906102b59190612304565b611228565b005b6102d660048036038101906102d19190612304565b61147e565b005b6102f260048036038101906102ed9190612592565b611569565b6040516103089a99989796959493929190612860565b60405180910390f35b61032b60048036038101906103269190612304565b6117af565b6040516103389190612340565b60405180910390f35b61035b60048036038101906103569190612304565b6117cf565b005b6103656118ba565b6040516103729190612514565b60405180910390f35b61039560048036038101906103909190612592565b611948565b005b6103b160048036038101906103ac9190612592565b611aaa565b6040516103be91906127ec565b60405180910390f35b6103e160048036038101906103dc9190612304565b611ae9565b005b6103eb611de7565b6040516103f891906127ec565b60405180910390f35b60015481565b600360003373ffffffffffffffffffffffffffffffffffffffff1673ffffffffffffffffffffffffffffffffffffffff16815260200190815260200160002060009054906101000a900460ff16806104ac5750600260009054906101000a900473ffffffffffffffffffffffffffffffffffffffff1673ffffffffffffffffffffffffffffffffffffffff163373ffffffffffffffffffffffffffffffffffffffff16145b6104eb576040517f08c379a00000000000000000000000000000000000000000000000000000000081526004016104e29061295d565b60405180910390fd5b600160008154809291906104fe906129ac565b919050555060405180610140016040528060015481526020018581526020018481526020013373ffffffffffffffffffffffffffffffffffffffff168152602001600073ffffffffffffffffffffffffffffffffffffffff168152602001428152602001600081526020018315158152602001600060038111156105855761058461265c565b5b81526020018281525060008060015481526020019081526020016000206000820151816000015560208201518160010190816105c19190612c00565b5060408201518160020190816105d79190612c00565b5060608201518160030160006101000a81548173ffffffffffffffffffffffffffffffffffffffff021916908373ffffffffffffffffffffffffffffffffffffffff16021790555060808201518160040160006101000a81548173ffffffffffffffffffffffffffffffffffffffff021916908373ffffffffffffffffffffffffffffffffffffffff16021790555060a0820151816005015560c0820151816006015560e08201518160070160006101000a81548160ff0219169083151502179055506101008201518160070160016101000a81548160ff021916908360038111156106c6576106c561265c565b5b02179055506101208201518160080190816106e19190612c00565b509050503373ffffffffffffffffffffffffffffffffffffffff166001547fe981be9abf0f5c4b005e8936ac5840dd88aea9197be6b28fd3ace7a7a3d6bef98660405161072e9190612cd2565b60405180910390a350505050565b600360003373ffffffffffffffffffffffffffffffffffffffff1673ffffffffffffffffffffffffffffffffffffffff16815260200190815260200160002060009054906101000a900460ff16156107c9576040517f08c379a00000000000000000000000000000000000000000000000000000000081526004016107c090612d40565b60405180910390fd5b600660003373ffffffffffffffffffffffffffffffffffffffff1673ffffffffffffffffffffffffffffffffffffffff16815260200190815260200160002060009054906101000a900460ff1615610856576040517f08c379a000000000000000000000000000000000000000000000000000000000815260040161084d90612dac565b60405180910390fd5b6001600660003373ffffffffffffffffffffffffffffffffffffffff1673ffffffffffffffffffffffffffffffffffffffff16815260200190815260200160002060006101000a81548160ff0219169083151502179055506007339080600181540180825580915050600190039060005260206000200160009091909190916101000a81548173ffffffffffffffffffffffffffffffffffffffff021916908373ffffffffffffffffffffffffffffffffffffffff160217905550565b60056020528060005260406000206000915054906101000a900460ff1681565b60036020528060005260406000206000915054906101000a900460ff1681565b6000806000878152602001908152602001600020905060008160000154036109b0576040517f08c379a00000000000000000000000000000000000000000000000000000000081526004016109a790612e18565b60405180910390fd5b600260009054906101000a900473ffffffffffffffffffffffffffffffffffffffff1673ffffffffffffffffffffffffffffffffffffffff163373ffffffffffffffffffffffffffffffffffffffff161480610a5b57508060030160009054906101000a900473ffffffffffffffffffffffffffffffffffffffff1673ffffffffffffffffffffffffffffffffffffffff163373ffffffffffffffffffffffffffffffffffffffff16145b80610aaf5750600360003373ffffffffffffffffffffffffffffffffffffffff1673ffffffffffffffffffffffffffffffffffffffff16815260200190815260200160002060009054906101000a900460ff165b610aee576040517f08c379a0000000000000000000000000000000000000000000000000000000008152600401610ae590612e84565b60405180910390fd5b84816001019081610aff9190612c00565b5083816002019081610b119190612c00565b50828160070160006101000a81548160ff021916908315150217905550600082511115610b835781816008019081610b499190612c00565b50857f93bc2c17407eb3397eaa274e582cfedcc752dea4680d6f38126a5ac64cb4a59a83604051610b7a9190612cd2565b60405180910390a25b505050505050565b60606004805480602002602001604051908101604052809291908181526020018280548015610c0f57602002820191906000526020600020905b8160009054906101000a900473ffffffffffffffffffffffffffffffffffffffff1673ffffffffffffffffffffffffffffffffffffffff1681526020019060010190808311610bc5575b5050505050905090565b600560003373ffffffffffffffffffffffffffffffffffffffff1673ffffffffffffffffffffffffffffffffffffffff16815260200190815260200160002060009054906101000a900460ff16610ca5576040517f08c379a0000000000000000000000000000000000000000000000000000000008152600401610c9c90612ef0565b60405180910390fd5b6000806000848152602001908152602001600020905060006003811115610ccf57610cce61265c565b5b8160070160019054906101000a900460ff166003811115610cf357610cf261265c565b5b14610d33576040517f08c379a0000000000000000000000000000000000000000000000000000000008152600401610d2a90612f5c565b60405180910390fd5b338160040160006101000a81548173ffffffffffffffffffffffffffffffffffffffff021916908373ffffffffffffffffffffffffffffffffffffffff16021790555042816006018190555060018160070160016101000a81548160ff02191690836003811115610da757610da661265c565b5b0217905550600082511115610dc95781816008019081610dc79190612c00565b505b3373ffffffffffffffffffffffffffffffffffffffff16837fdfa430c3539e7d1f6bbf2f3183535ab293fe4f7fb065e59894eb182d065d885160405160405180910390a3505050565b610e1a611f92565b6000808381526020019081526020016000206040518061014001604052908160008201548152602001600182018054610e5290612a23565b80601f0160208091040260200160405190810160405280929190818152602001828054610e7e90612a23565b8015610ecb5780601f10610ea057610100808354040283529160200191610ecb565b820191906000526020600020905b815481529060010190602001808311610eae57829003601f168201915b50505050508152602001600282018054610ee490612a23565b80601f0160208091040260200160405190810160405280929190818152602001828054610f1090612a23565b8015610f5d5780601f10610f3257610100808354040283529160200191610f5d565b820191906000526020600020905b815481529060010190602001808311610f4057829003601f168201915b505050505081526020016003820160009054906101000a900473ffffffffffffffffffffffffffffffffffffffff1673ffffffffffffffffffffffffffffffffffffffff1673ffffffffffffffffffffffffffffffffffffffff1681526020016004820160009054906101000a900473ffffffffffffffffffffffffffffffffffffffff1673ffffffffffffffffffffffffffffffffffffffff1673ffffffffffffffffffffffffffffffffffffffff16815260200160058201548152602001600682015481526020016007820160009054906101000a900460ff161515151581526020016007820160019054906101000a900460ff1660038111156110665761106561265c565b5b60038111156110785761107761265c565b5b815260200160088201805461108c90612a23565b80601f01602080910402602001604051908101604052809291908181526020018280546110b890612a23565b80156111055780601f106110da57610100808354040283529160200191611105565b820191906000526020600020905b8154815290600101906020018083116110e857829003601f168201915b5050505050815250509050919050565b6004818154811061112557600080fd5b906000526020600020016000915054906101000a900473ffffffffffffffffffffffffffffffffffffffff1681565b600073ffffffffffffffffffffffffffffffffffffffff16600260009054906101000a900473ffffffffffffffffffffffffffffffffffffffff1673ffffffffffffffffffffffffffffffffffffffff16146111e5576040517f08c379a00000000000000000000000000000000000000000000000000000000081526004016111dc90612fc8565b60405180910390fd5b33600260006101000a81548173ffffffffffffffffffffffffffffffffffffffff021916908373ffffffffffffffffffffffffffffffffffffffff160217905550565b600260009054906101000a900473ffffffffffffffffffffffffffffffffffffffff1673ffffffffffffffffffffffffffffffffffffffff163373ffffffffffffffffffffffffffffffffffffffff16146112b8576040517f08c379a00000000000000000000000000000000000000000000000000000000081526004016112af90613034565b60405180910390fd5b600360008273ffffffffffffffffffffffffffffffffffffffff1673ffffffffffffffffffffffffffffffffffffffff16815260200190815260200160002060009054906101000a900460ff166113c5576001600360008373ffffffffffffffffffffffffffffffffffffffff1673ffffffffffffffffffffffffffffffffffffffff16815260200190815260200160002060006101000a81548160ff0219169083151502179055506004819080600181540180825580915050600190039060005260206000200160009091909190916101000a81548173ffffffffffffffffffffffffffffffffffffffff021916908373ffffffffffffffffffffffffffffffffffffffff1602179055505b600660008273ffffffffffffffffffffffffffffffffffffffff1673ffffffffffffffffffffffffffffffffffffffff16815260200190815260200160002060009054906101000a900460ff161561147b576000600660008373ffffffffffffffffffffffffffffffffffffffff1673ffffffffffffffffffffffffffffffffffffffff16815260200190815260200160002060006101000a81548160ff02191690831515021790555061147a600782611e0d565b5b50565b600260009054906101000a900473ffffffffffffffffffffffffffffffffffffffff1673ffffffffffffffffffffffffffffffffffffffff163373ffffffffffffffffffffffffffffffffffffffff161461150e576040517f08c379a000000000000000000000000000000000000000000000000000000000815260040161150590613034565b60405180910390fd5b6001600560008373ffffffffffffffffffffffffffffffffffffffff1673ffffffffffffffffffffffffffffffffffffffff16815260200190815260200160002060006101000a81548160ff02191690831515021790555050565b600060205280600052604060002060009150905080600001549080600101805461159290612a23565b80601f01602080910402602001604051908101604052809291908181526020018280546115be90612a23565b801561160b5780601f106115e05761010080835404028352916020019161160b565b820191906000526020600020905b8154815290600101906020018083116115ee57829003601f168201915b50505050509080600201805461162090612a23565b80601f016020809104026020016040519081016040528092919081815260200182805461164c90612a23565b80156116995780601f1061166e57610100808354040283529160200191611699565b820191906000526020600020905b81548152906001019060200180831161167c57829003601f168201915b5050505050908060030160009054906101000a900473ffffffffffffffffffffffffffffffffffffffff16908060040160009054906101000a900473ffffffffffffffffffffffffffffffffffffffff16908060050154908060060154908060070160009054906101000a900460ff16908060070160019054906101000a900460ff169080600801805461172c90612a23565b80601f016020809104026020016040519081016040528092919081815260200182805461175890612a23565b80156117a55780601f1061177a576101008083540402835291602001916117a5565b820191906000526020600020905b81548152906001019060200180831161178857829003601f168201915b505050505090508a565b60066020528060005260406000206000915054906101000a900460ff1681565b600260009054906101000a900473ffffffffffffffffffffffffffffffffffffffff1673ffffffffffffffffffffffffffffffffffffffff163373ffffffffffffffffffffffffffffffffffffffff161461185f576040517f08c379a000000000000000000000000000000000000000000000000000000000815260040161185690613034565b60405180910390fd5b6000600560008373ffffffffffffffffffffffffffffffffffffffff1673ffffffffffffffffffffffffffffffffffffffff16815260200190815260200160002060006101000a81548160ff02191690831515021790555050565b6060600780548060200260200160405190810160405280929190818152602001828054801561193e57602002820191906000526020600020905b8160009054906101000a900473ffffffffffffffffffffffffffffffffffffffff1673ffffffffffffffffffffffffffffffffffffffff16815260200190600101908083116118f4575b5050505050905090565b6000806000838152602001908152602001600020905060008160000154036119a5576040517f08c379a000000000000000000000000000000000000000000000000000000000815260040161199c90612e18565b60405180910390fd5b600260009054906101000a900473ffffffffffffffffffffffffffffffffffffffff1673ffffffffffffffffffffffffffffffffffffffff163373ffffffffffffffffffffffffffffffffffffffff1614611a35576040517f08c379a0000000000000000000000000000000000000000000000000000000008152600401611a2c906130a0565b60405180910390fd5b60038160070160016101000a81548160ff02191690836003811115611a5d57611a5c61265c565b5b02179055503373ffffffffffffffffffffffffffffffffffffffff16827fe24e1e0ead24ddb181df17284049eacf3c81331226932db757739d6e4d65061860405160405180910390a35050565b60078181548110611aba57600080fd5b906000526020600020016000915054906101000a900473ffffffffffffffffffffffffffffffffffffffff1681565b600260009054906101000a900473ffffffffffffffffffffffffffffffffffffffff1673ffffffffffffffffffffffffffffffffffffffff163373ffffffffffffffffffffffffffffffffffffffff1614611b79576040517f08c379a0000000000000000000000000000000000000000000000000000000008152600401611b7090613034565b60405180910390fd5b600360008273ffffffffffffffffffffffffffffffffffffffff1673ffffffffffffffffffffffffffffffffffffffff16815260200190815260200160002060009054906101000a900460ff16611c05576040517f08c379a0000000000000000000000000000000000000000000000000000000008152600401611bfc9061310c565b60405180910390fd5b6000600360008373ffffffffffffffffffffffffffffffffffffffff1673ffffffffffffffffffffffffffffffffffffffff16815260200190815260200160002060006101000a81548160ff02191690831515021790555060005b600480549050811015611de3578173ffffffffffffffffffffffffffffffffffffffff1660048281548110611c9857611c9761312c565b5b9060005260206000200160009054906101000a900473ffffffffffffffffffffffffffffffffffffffff1673ffffffffffffffffffffffffffffffffffffffff1603611dd65760046001600480549050611cf2919061315b565b81548110611d0357611d0261312c565b5b9060005260206000200160009054906101000a900473ffffffffffffffffffffffffffffffffffffffff1660048281548110611d4257611d4161312c565b5b9060005260206000200160006101000a81548173ffffffffffffffffffffffffffffffffffffffff021916908373ffffffffffffffffffffffffffffffffffffffff1602179055506004805480611d9c57611d9b61318f565b5b6001900381819060005260206000200160006101000a81549073ffffffffffffffffffffffffffffffffffffffff02191690559055611de3565b8080600101915050611c60565b5050565b600260009054906101000a900473ffffffffffffffffffffffffffffffffffffffff1681565b60005b8280549050811015611f8d578173ffffffffffffffffffffffffffffffffffffffff16838281548110611e4657611e4561312c565b5b9060005260206000200160009054906101000a900473ffffffffffffffffffffffffffffffffffffffff1673ffffffffffffffffffffffffffffffffffffffff1603611f80578260018480549050611e9e919061315b565b81548110611eaf57611eae61312c565b5b9060005260206000200160009054906101000a900473ffffffffffffffffffffffffffffffffffffffff16838281548110611eed57611eec61312c565b5b9060005260206000200160006101000a81548173ffffffffffffffffffffffffffffffffffffffff021916908373ffffffffffffffffffffffffffffffffffffffff16021790555082805480611f4657611f4561318f565b5b6001900381819060005260206000200160006101000a81549073ffffffffffffffffffffffffffffffffffffffff02191690559055611f8d565b8080600101915050611e10565b505050565b604051806101400160405280600081526020016060815260200160608152602001600073ffffffffffffffffffffffffffffffffffffffff168152602001600073ffffffffffffffffffffffffffffffffffffffff1681526020016000815260200160008152602001600015158152602001600060038111156120185761201761265c565b5b8152602001606081525090565b6000819050919050565b61203881612025565b82525050565b6000602082019050612053600083018461202f565b92915050565b6000604051905090565b600080fd5b600080fd5b600080fd5b600080fd5b6000601f19601f8301169050919050565b7f4e487b7100000000000000000000000000000000000000000000000000000000600052604160045260246000fd5b6120c082612077565b810181811067ffffffffffffffff821117156120df576120de612088565b5b80604052505050565b60006120f2612059565b90506120fe82826120b7565b919050565b600067ffffffffffffffff82111561211e5761211d612088565b5b61212782612077565b9050602081019050919050565b82818337600083830152505050565b600061215661215184612103565b6120e8565b90508281526020810184848401111561217257612171612072565b5b61217d848285612134565b509392505050565b600082601f83011261219a5761219961206d565b5b81356121aa848260208601612143565b91505092915050565b60008115159050919050565b6121c8816121b3565b81146121d357600080fd5b50565b6000813590506121e5816121bf565b92915050565b6000806000806080858703121561220557612204612063565b5b600085013567ffffffffffffffff81111561222357612222612068565b5b61222f87828801612185565b945050602085013567ffffffffffffffff8111156122505761224f612068565b5b61225c87828801612185565b935050604061226d878288016121d6565b925050606085013567ffffffffffffffff81111561228e5761228d612068565b5b61229a87828801612185565b91505092959194509250565b600073ffffffffffffffffffffffffffffffffffffffff82169050919050565b60006122d1826122a6565b9050919050565b6122e1816122c6565b81146122ec57600080fd5b50565b6000813590506122fe816122d8565b92915050565b60006020828403121561231a57612319612063565b5b6000612328848285016122ef565b91505092915050565b61233a816121b3565b82525050565b60006020820190506123556000830184612331565b92915050565b61236481612025565b811461236f57600080fd5b50565b6000813590506123818161235b565b92915050565b600080600080600060a086880312156123a3576123a2612063565b5b60006123b188828901612372565b955050602086013567ffffffffffffffff8111156123d2576123d1612068565b5b6123de88828901612185565b945050604086013567ffffffffffffffff8111156123ff576123fe612068565b5b61240b88828901612185565b935050606061241c888289016121d6565b925050608086013567ffffffffffffffff81111561243d5761243c612068565b5b61244988828901612185565b9150509295509295909350565b600081519050919050565b600082825260208201905092915050565b6000819050602082019050919050565b61248b816122c6565b82525050565b600061249d8383612482565b60208301905092915050565b6000602082019050919050565b60006124c182612456565b6124cb8185612461565b93506124d683612472565b8060005b838110156125075781516124ee8882612491565b97506124f9836124a9565b9250506001810190506124da565b5085935050505092915050565b6000602082019050818103600083015261252e81846124b6565b905092915050565b6000806040838503121561254d5761254c612063565b5b600061255b85828601612372565b925050602083013567ffffffffffffffff81111561257c5761257b612068565b5b61258885828601612185565b9150509250929050565b6000602082840312156125a8576125a7612063565b5b60006125b684828501612372565b91505092915050565b6125c881612025565b82525050565b600081519050919050565b600082825260208201905092915050565b60005b838110156126085780820151818401526020810190506125ed565b60008484015250505050565b600061261f826125ce565b61262981856125d9565b93506126398185602086016125ea565b61264281612077565b840191505092915050565b612656816121b3565b82525050565b7f4e487b7100000000000000000000000000000000000000000000000000000000600052602160045260246000fd5b6004811061269c5761269b61265c565b5b50565b60008190506126ad8261268b565b919050565b60006126bd8261269f565b9050919050565b6126cd816126b2565b82525050565b6000610140830160008301516126ec60008601826125bf565b50602083015184820360208601526127048282612614565b9150506040830151848203604086015261271e8282612614565b91505060608301516127336060860182612482565b5060808301516127466080860182612482565b5060a083015161275960a08601826125bf565b5060c083015161276c60c08601826125bf565b5060e083015161277f60e086018261264d565b506101008301516127946101008601826126c4565b506101208301518482036101208601526127ae8282612614565b9150508091505092915050565b600060208201905081810360008301526127d581846126d3565b905092915050565b6127e6816122c6565b82525050565b600060208201905061280160008301846127dd565b92915050565b600082825260208201905092915050565b6000612823826125ce565b61282d8185612807565b935061283d8185602086016125ea565b61284681612077565b840191505092915050565b61285a816126b2565b82525050565b600061014082019050612876600083018d61202f565b8181036020830152612888818c612818565b9050818103604083015261289c818b612818565b90506128ab606083018a6127dd565b6128b860808301896127dd565b6128c560a083018861202f565b6128d260c083018761202f565b6128df60e0830186612331565b6128ed610100830185612851565b8181036101208301526129008184612818565b90509b9a5050505050505050505050565b7f4f6e6c79206661726d6572206f722061646d696e000000000000000000000000600082015250565b6000612947601483612807565b915061295282612911565b602082019050919050565b600060208201905081810360008301526129768161293a565b9050919050565b7f4e487b7100000000000000000000000000000000000000000000000000000000600052601160045260246000fd5b60006129b782612025565b91507fffffffffffffffffffffffffffffffffffffffffffffffffffffffffffffffff82036129e9576129e861297d565b5b600182019050919050565b7f4e487b7100000000000000000000000000000000000000000000000000000000600052602260045260246000fd5b60006002820490506001821680612a3b57607f821691505b602082108103612a4e57612a4d6129f4565b5b50919050565b60008190508160005260206000209050919050565b60006020601f8301049050919050565b600082821b905092915050565b600060088302612ab67fffffffffffffffffffffffffffffffffffffffffffffffffffffffffffffffff82612a79565b612ac08683612a79565b95508019841693508086168417925050509392505050565b6000819050919050565b6000612afd612af8612af384612025565b612ad8565b612025565b9050919050565b6000819050919050565b612b1783612ae2565b612b2b612b2382612b04565b848454612a86565b825550505050565b600090565b612b40612b33565b612b4b818484612b0e565b505050565b5b81811015612b6f57612b64600082612b38565b600181019050612b51565b5050565b601f821115612bb457612b8581612a54565b612b8e84612a69565b81016020851015612b9d578190505b612bb1612ba985612a69565b830182612b50565b50505b505050565b600082821c905092915050565b6000612bd760001984600802612bb9565b1980831691505092915050565b6000612bf08383612bc6565b9150826002028217905092915050565b612c09826125ce565b67ffffffffffffffff811115612c2257612c21612088565b5b612c2c8254612a23565b612c37828285612b73565b600060209050601f831160018114612c6a5760008415612c58578287015190505b612c628582612be4565b865550612cca565b601f198416612c7886612a54565b60005b82811015612ca057848901518255600182019150602085019450602081019050612c7b565b86831015612cbd5784890151612cb9601f891682612bc6565b8355505b6001600288020188555050505b505050505050565b60006020820190508181036000830152612cec8184612818565b905092915050565b7f416c72656164792061206661726d657200000000000000000000000000000000600082015250565b6000612d2a601083612807565b9150612d3582612cf4565b602082019050919050565b60006020820190508181036000830152612d5981612d1d565b9050919050565b7f5265717565737420616c72656164792070656e64696e67000000000000000000600082015250565b6000612d96601783612807565b9150612da182612d60565b602082019050919050565b60006020820190508181036000830152612dc581612d89565b9050919050565b7f426174636820646f6573206e6f74206578697374000000000000000000000000600082015250565b6000612e02601483612807565b9150612e0d82612dcc565b602082019050919050565b60006020820190508181036000830152612e3181612df5565b9050919050565b7f556e617574686f72697a65640000000000000000000000000000000000000000600082015250565b6000612e6e600c83612807565b9150612e7982612e38565b602082019050919050565b60006020820190508181036000830152612e9d81612e61565b9050919050565b7f4f6e6c79206d696c6c6572000000000000000000000000000000000000000000600082015250565b6000612eda600b83612807565b9150612ee582612ea4565b602082019050919050565b60006020820190508181036000830152612f0981612ecd565b9050919050565b7f496e76616c696420737461746500000000000000000000000000000000000000600082015250565b6000612f46600d83612807565b9150612f5182612f10565b602082019050919050565b60006020820190508181036000830152612f7581612f39565b9050919050565b7f41646d696e20616c726561647920736574000000000000000000000000000000600082015250565b6000612fb2601183612807565b9150612fbd82612f7c565b602082019050919050565b60006020820190508181036000830152612fe181612fa5565b9050919050565b7f4f6e6c792061646d696e00000000000000000000000000000000000000000000600082015250565b600061301e600a83612807565b915061302982612fe8565b602082019050919050565b6000602082019050818103600083015261304d81613011565b9050919050565b7f4f6e6c792061646d696e2063616e2064656c6574650000000000000000000000600082015250565b600061308a601583612807565b915061309582613054565b602082019050919050565b600060208201905081810360008301526130b98161307d565b9050919050565b7f4e6f742061206661726d65720000000000000000000000000000000000000000600082015250565b60006130f6600c83612807565b9150613101826130c0565b602082019050919050565b60006020820190508181036000830152613125816130e9565b9050919050565b7f4e487b7100000000000000000000000000000000000000000000000000000000600052603260045260246000fd5b600061316682612025565b915061317183612025565b92508282039050818111156131895761318861297d565b5b92915050565b7f4e487b7100000000000000000000000000000000000000000000000000000000600052603160045260246000fdfea26469706673582212204f0f383aee6afad6a0f48860457e1a08f353b5bc1d9507aa8e110affc9504e1764736f6c63430008180033",
  "linkReferences": {},
  "deployedLinkReferences": {}
}