{
  "_format": "hh-sol-artifact-1",
  "contractName": "RiceTracking",
  "sourceName": "contracts/RiceTracking.sol",
  "abi": [
    {
      "inputs": [],
      "stateMutability": "nonpayable",
      "type": "constructor"
    },
    {
      "anonymous": false,
      "inputs": [
        {
          "indexed": true,
          "internalType": "uint256",
          "name": "id",
          "type": "uint256"
        },
        {
          "indexed": true,
          "internalType": "address",
          "name": "deleter",
          "type": "address"
        }
      ],
      "name": "BatchDeleted",
      "type": "event"
    },
    {
      "anonymous": false,
      "inputs": [
        {
          "indexed": true,
          "internalType": "uint256",
          "name": "id",
          "type": "uint256"
        },
        {
          "indexed": false,
          "internalType": "string",
          "name": "newIpfsHash",
          "type": "string"
        }
      ],
      "name": "BatchImageUpdated",
      "type": "event"
    },
    {
      "anonymous": false,
      "inputs": [
        {
          "indexed": true,
          "internalType": "uint256",
          "name": "id",
          "type": "uint256"
        },
        {
          "indexed": false,
          "internalType": "string",
          "name": "variety",
          "type": "string"
        },
        {
          "indexed": true,
          "internalType": "address",
          "name": "farmer",
          "type": "address"
        }
      ],
      "name": "PaddyCreated",
      "type": "event"
    },
    {
      "anonymous": false,
      "inputs": [
        {
          "indexed": true,
          "internalType": "uint256",
          "name": "id",
          "type": "uint256"
        },
        {
          "indexed": true,
          "internalType": "address",
          "name": "miller",
          "type": "address"
        }
      ],
      "name": "RiceProcessed",
      "type": "event"
    },
    {
      "anonymous": false,
      "inputs": [
        {
          "indexed": false,
          "internalType": "bytes32",
          "name": "role",
          "type": "bytes32"
        },
        {
          "indexed": true,
          "internalType": "address",
          "name": "account",
          "type": "address"
        }
      ],
      "name": "RoleGranted",
      "type": "event"
    },
    {
      "anonymous": false,
      "inputs": [
        {
          "indexed": false,
          "internalType": "bytes32",
          "name": "role",
          "type": "bytes32"
        },
        {
          "indexed": true,
          "internalType": "address",
          "name": "account",
          "type": "address"
        }
      ],
      "name": "RoleRevoked",
      "type": "event"
    },
    {
      "inputs": [
        {
          "internalType": "address",
          "name": "_farmer",
          "type": "address"
        }
      ],
      "name": "addFarmer",
      "outputs": [],
      "stateMutability": "nonpayable",
      "type": "function"
    },
    {
      "inputs": [
        {
          "internalType": "address",
          "name": "_miller",
          "type": "address"
        }
      ],
      "name": "addMiller",
      "outputs": [],
      "stateMutability": "nonpayable",
      "type": "function"
    },
    {
      "inputs": [],
      "name": "admin",
      "outputs": [
        {
          "internalType": "address",
          "name": "",
          "type": "address"
        }
      ],
      "stateMutability": "view",
      "type": "function"
    },
    {
      "inputs": [],
      "name": "batchCount",
      "outputs": [
        {
          "internalType": "uint256",
          "name": "",
          "type": "uint256"
        }
      ],
      "stateMutability": "view",
      "type": "function"
    },
    {
      "inputs": [
        {
          "internalType": "uint256",
          "name": "",
          "type": "uint256"
        }
      ],
      "name": "batches",
      "outputs": [
        {
          "internalType": "uint256",
          "name": "id",
          "type": "uint256"
        },
        {
          "internalType": "string",
          "name": "variety",
          "type": "string"
        },
        {
          "internalType": "string",
          "name": "origin",
          "type": "string"
        },
        {
          "internalType": "address",
          "name": "farmer",
          "type": "address"
        },
        {
          "internalType": "address",
          "name": "miller",
          "type": "address"
        },
        {
          "internalType": "uint256",
          "name": "harvestDate",
          "type": "uint256"
        },
        {
          "internalType": "uint256",
          "name": "millingDate",
          "type": "uint256"
        },
        {
          "internalType": "bool",
          "name": "isOrganic",
          "type": "bool"
        },
        {
          "internalType": "enum RiceTracking.State",
          "name": "state",
          "type": "uint8"
        },
        {
          "internalType": "string",
          "name": "ipfsHash",
          "type": "string"
        }
      ],
      "stateMutability": "view",
      "type": "function"
    },
    {
      "inputs": [
        {
          "internalType": "string",
          "name": "_variety",
          "type": "string"
        },
        {
          "internalType": "string",
          "name": "_origin",
          "type": "string"
        },
        {
          "internalType": "bool",
          "name": "_isOrganic",
          "type": "bool"
        },
        {
          "internalType": "string",
          "name": "_ipfsHash",
          "type": "string"
        }
      ],
      "name": "createPaddyBatch",
      "outputs": [],
      "stateMutability": "nonpayable",
      "type": "function"
    },
    {
      "inputs": [
        {
          "internalType": "uint256",
          "name": "_id",
          "type": "uint256"
        }
      ],
      "name": "deleteBatch",
      "outputs": [],
      "stateMutability": "nonpayable",
      "type": "function"
    },
    {
      "inputs": [
        {
          "internalType": "uint256",
          "name": "",
          "type": "uint256"
        }
      ],
      "name": "farmerList",
      "outputs": [
        {
          "internalType": "address",
          "name": "",
          "type": "address"
        }
      ],
      "stateMutability": "view",
      "type": "function"
    },
    {
      "inputs": [
        {
          "internalType": "address",
          "name": "",
          "type": "address"
        }
      ],
      "name": "farmers",
      "outputs": [
        {
          "internalType": "bool",
          "name": "",
          "type": "bool"
        }
      ],
      "stateMutability": "view",
      "type": "function"
    },
    {
      "inputs": [],
      "name": "getAllFarmers",
      "outputs": [
        {
          "internalType": "address[]",
          "name": "",
          "type": "address[]"
        }
      ],
      "stateMutability": "view",
      "type": "function"
    },
    {
      "inputs": [
        {
          "internalType": "uint256",
          "name": "_id",
          "type": "uint256"
        }
      ],
      "name": "getBatch",
      "outputs": [
        {
          "components": [
            {
              "internalType": "uint256",
              "name": "id",
              "type": "uint256"
            },
            {
              "internalType": "string",
              "name": "variety",
              "type": "string"
            },
            {
              "internalType": "string",
              "name": "origin",
              "type": "string"
            },
            {
              "internalType": "address",
              "name": "farmer",
              "type": "address"
            },
            {
              "internalType": "address",
              "name": "miller",
              "type": "address"
            },
            {
              "internalType": "uint256",
              "name": "harvestDate",
              "type": "uint256"
            },
            {
              "internalType": "uint256",
              "name": "millingDate",
              "type": "uint256"
            },
            {
              "internalType": "bool",
              "name": "isOrganic",
              "type": "bool"
            },
            {
              "internalType": "enum RiceTracking.State",
              "name": "state",
              "type": "uint8"
            },
            {
              "internalType": "string",
              "name": "ipfsHash",
              "type": "string"
            }
          ],
          "internalType": "struct RiceTracking.RiceBatch",
          "name": "",
          "type": "tuple"
        }
      ],
      "stateMutability": "view",
      "type": "function"
    },
    {
      "inputs": [],
      "name": "getRequesters",
      "outputs": [
        {
          "internalType": "address[]",
          "name": "",
          "type": "address[]"
        }
      ],
      "stateMutability": "view",
      "type": "function"
    },
    {
      "inputs": [
        {
          "internalType": "address",
          "name": "",
          "type": "address"
        }
      ],
      "name": "millers",
      "outputs": [
        {
          "internalType": "bool",
          "name": "",
          "type": "bool"
        }
      ],
      "stateMutability": "view",
      "type": "function"
    },
    {
      "inputs": [
        {
          "internalType": "address",
          "name": "",
          "type": "address"
        }
      ],
      "name": "pendingFarmers",
      "outputs": [
        {
          "internalType": "bool",
          "name": "",
          "type": "bool"
        }
      ],
      "stateMutability": "view",
      "type": "function"
    },
    {
      "inputs": [
        {
          "internalType": "uint256",
          "name": "_id",
          "type": "uint256"
        },
        {
          "internalType": "string",
          "name": "_newIpfsHash",
          "type": "string"
        }
      ],
      "name": "processRice",
      "outputs": [],
      "stateMutability": "nonpayable",
      "type": "function"
    },
    {
      "inputs": [
        {
          "internalType": "address",
          "name": "_farmer",
          "type": "address"
        }
      ],
      "name": "removeFarmer",
      "outputs": [],
      "stateMutability": "nonpayable",
      "type": "function"
    },
    {
      "inputs": [
        {
          "internalType": "address",
          "name": "_miller",
          "type": "address"
        }
      ],
      "name": "removeMiller",
      "outputs": [],
      "stateMutability": "nonpayable",
      "type": "function"
    },
    {
      "inputs": [],
      "name": "requestFarmerRole",
      "outputs": [],
      "stateMutability": "nonpayable",
      "type": "function"
    },
    {
      "inputs": [
        {
          "internalType": "uint256",
          "name": "",
          "type": "uint256"
        }
      ],
      "name": "requesterList",
      "outputs": [
        {
          "internalType": "address",
          "name": "",
          "type": "address"
        }
      ],
      "stateMutability": "view",
      "type": "function"
    },
    {
      "inputs": [
        {
          "internalType": "uint256",
          "name": "_id",
          "type": "uint256"
        },
        {
          "internalType": "string",
          "name": "_variety",
          "type": "string"
        },
        {
          "internalType": "string",
          "name": "_origin",
          "type": "string"
        },
        {
          "internalType": "bool",
          "name": "_isOrganic",
          "type": "bool"
        },
        {
          "internalType": "string",
          "name": "_ipfsHash",
          "type": "string"
        }
      ],
      "name": "updateBatch",
      "outputs": [],
      "stateMutability": "nonpayable",
      "type": "function"
    }
  ],
  "bytecode": "0x608060405234801561001057600080fd5b5033600260006101000a81548173ffffffffffffffffffffffffffffffffffffffff021916908373ffffffffffffffffffffffffffffffffffffffff16021790555061308d806100616000396000f3fe608060405234801561001057600080fd5b506004361061012c5760003560e01c806380c3f96d116100ad578063cb0830a311610071578063cb0830a314610348578063d06b1da814610366578063df320db014610382578063e6bf3fdc146103b2578063f851a440146103ce5761012c565b806380c3f96d1461028b578063ab5d6bd2146102a7578063b32c4d8d146102c3578063bfd5265d146102fc578063ca71dda61461032c5761012c565b806345d01e00116100f457806345d01e00146101d5578063536954e4146101f157806357e775651461020f5780635ac442821461022b57806373be9df71461025b5761012c565b806306f130561461013157806331f2e1071461014f5780633cdc16471461016b5780633df87e5214610175578063401b2168146101a5575b600080fd5b6101396103ec565b6040516101469190611faf565b60405180910390f35b6101696004803603810190610164919061215c565b6103f2565b005b610173610727565b005b61018f600480360381019061018a9190612275565b6108fe565b60405161019c91906122b1565b60405180910390f35b6101bf60048036038101906101ba9190612275565b61091e565b6040516101cc91906122b1565b60405180910390f35b6101ef60048036038101906101ea91906122f8565b61093e565b005b6101f9610b76565b6040516102069190612485565b60405180910390f35b610229600480360381019061022491906124a7565b610c04565b005b61024560048036038101906102409190612503565b610dfd565b604051610252919061272c565b60405180910390f35b61027560048036038101906102709190612503565b611100565b604051610282919061275d565b60405180910390f35b6102a560048036038101906102a09190612275565b61113f565b005b6102c160048036038101906102bc9190612275565b611395565b005b6102dd60048036038101906102d89190612503565b611480565b6040516102f39a999897969594939291906127d1565b60405180910390f35b61031660048036038101906103119190612275565b6116c6565b60405161032391906122b1565b60405180910390f35b61034660048036038101906103419190612275565b6116e6565b005b6103506117d1565b60405161035d9190612485565b60405180910390f35b610380600480360381019061037b9190612503565b61185f565b005b61039c60048036038101906103979190612503565b611a1b565b6040516103a9919061275d565b60405180910390f35b6103cc60048036038101906103c79190612275565b611a5a565b005b6103d6611d58565b6040516103e3919061275d565b60405180910390f35b60015481565b600360003373ffffffffffffffffffffffffffffffffffffffff1673ffffffffffffffffffffffffffffffffffffffff16815260200190815260200160002060009054906101000a900460ff16806104975750600260009054906101000a900473ffffffffffffffffffffffffffffffffffffffff1673ffffffffffffffffffffffffffffffffffffffff163373ffffffffffffffffffffffffffffffffffffffff16145b6104d6576040517f08c379a00000000000000000000000000000000000000000000000000000000081526004016104cd906128ce565b60405180910390fd5b600160008154809291906104e99061291d565b919050555060405180610140016040528060015481526020018581526020018481526020013373ffffffffffffffffffffffffffffffffffffffff168152602001600073ffffffffffffffffffffffffffffffffffffffff168152602001428152602001600081526020018315158152602001600060038111156105705761056f6125cd565b5b81526020018281525060008060015481526020019081526020016000206000820151816000015560208201518160010190816105ac9190612b71565b5060408201518160020190816105c29190612b71565b5060608201518160030160006101000a81548173ffffffffffffffffffffffffffffffffffffffff021916908373ffffffffffffffffffffffffffffffffffffffff16021790555060808201518160040160006101000a81548173ffffffffffffffffffffffffffffffffffffffff021916908373ffffffffffffffffffffffffffffffffffffffff16021790555060a0820151816005015560c0820151816006015560e08201518160070160006101000a81548160ff0219169083151502179055506101008201518160070160016101000a81548160ff021916908360038111156106b1576106b06125cd565b5b02179055506101208201518160080190816106cc9190612b71565b509050503373ffffffffffffffffffffffffffffffffffffffff166001547fe981be9abf0f5c4b005e8936ac5840dd88aea9197be6b28fd3ace7a7a3d6bef9866040516107199190612c43565b60405180910390a350505050565b600360003373ffffffffffffffffffffffffffffffffffffffff1673ffffffffffffffffffffffffffffffffffffffff16815260200190815260200160002060009054906101000a900460ff16156107b4576040517f08c379a00000000000000000000000000000000000000000000000000000000081526004016107ab90612cb1565b60405180910390fd5b600660003373ffffffffffffffffffffffffffffffffffffffff1673ffffffffffffffffffffffffffffffffffffffff16815260200190815260200160002060009054906101000a900460ff1615610841576040517f08c379a000000000000000000000000000000000000000000000000000000000815260040161083890612d1d565b60405180910390fd5b6001600660003373ffffffffffffffffffffffffffffffffffffffff1673ffffffffffffffffffffffffffffffffffffffff16815260200190815260200160002060006101000a81548160ff0219169083151502179055506007339080600181540180825580915050600190039060005260206000200160009091909190916101000a81548173ffffffffffffffffffffffffffffffffffffffff021916908373ffffffffffffffffffffffffffffffffffffffff160217905550565b60056020528060005260406000206000915054906101000a900460ff1681565b60036020528060005260406000206000915054906101000a900460ff1681565b60008060008781526020019081526020016000209050600081600001540361099b576040517f08c379a000000000000000000000000000000000000000000000000000000000815260040161099290612d89565b60405180910390fd5b600260009054906101000a900473ffffffffffffffffffffffffffffffffffffffff1673ffffffffffffffffffffffffffffffffffffffff163373ffffffffffffffffffffffffffffffffffffffff161480610a4657508060030160009054906101000a900473ffffffffffffffffffffffffffffffffffffffff1673ffffffffffffffffffffffffffffffffffffffff163373ffffffffffffffffffffffffffffffffffffffff16145b80610a9a5750600360003373ffffffffffffffffffffffffffffffffffffffff1673ffffffffffffffffffffffffffffffffffffffff16815260200190815260200160002060009054906101000a900460ff165b610ad9576040517f08c379a0000000000000000000000000000000000000000000000000000000008152600401610ad090612df5565b60405180910390fd5b84816001019081610aea9190612b71565b5083816002019081610afc9190612b71565b50828160070160006101000a81548160ff021916908315150217905550600082511115610b6e5781816008019081610b349190612b71565b50857f93bc2c17407eb3397eaa274e582cfedcc752dea4680d6f38126a5ac64cb4a59a83604051610b659190612c43565b60405180910390a25b505050505050565b60606004805480602002602001604051908101604052809291908181526020018280548015610bfa57602002820191906000526020600020905b8160009054906101000a900473ffffffffffffffffffffffffffffffffffffffff1673ffffffffffffffffffffffffffffffffffffffff1681526020019060010190808311610bb0575b5050505050905090565b600560003373ffffffffffffffffffffffffffffffffffffffff1673ffffffffffffffffffffffffffffffffffffffff16815260200190815260200160002060009054906101000a900460ff16610c90576040517f08c379a0000000000000000000000000000000000000000000000000000000008152600401610c8790612e61565b60405180910390fd5b6000806000848152602001908152602001600020905060006003811115610cba57610cb96125cd565b5b8160070160019054906101000a900460ff166003811115610cde57610cdd6125cd565b5b14610d1e576040517f08c379a0000000000000000000000000000000000000000000000000000000008152600401610d1590612ecd565b60405180910390fd5b338160040160006101000a81548173ffffffffffffffffffffffffffffffffffffffff021916908373ffffffffffffffffffffffffffffffffffffffff16021790555042816006018190555060018160070160016101000a81548160ff02191690836003811115610d9257610d916125cd565b5b0217905550600082511115610db45781816008019081610db29190612b71565b505b3373ffffffffffffffffffffffffffffffffffffffff16837fdfa430c3539e7d1f6bbf2f3183535ab293fe4f7fb065e59894eb182d065d885160405160405180910390a3505050565b610e05611f03565b6000808381526020019081526020016000206040518061014001604052908160008201548152602001600182018054610e3d90612994565b80601f0160208091040260200160405190810160405280929190818152602001828054610e6990612994565b8015610eb65780601f10610e8b57610100808354040283529160200191610eb6565b820191906000526020600020905b815481529060010190602001808311610e9957829003601f168201915b50505050508152602001600282018054610ecf90612994565b80601f0160208091040260200160405190810160405280929190818152602001828054610efb90612994565b8015610f485780601f10610f1d57610100808354040283529160200191610f48565b820191906000526020600020905b815481529060010190602001808311610f2b57829003601f168201915b505050505081526020016003820160009054906101000a900473ffffffffffffffffffffffffffffffffffffffff1673ffffffffffffffffffffffffffffffffffffffff1673ffffffffffffffffffffffffffffffffffffffff1681526020016004820160009054906101000a900473ffffffffffffffffffffffffffffffffffffffff1673ffffffffffffffffffffffffffffffffffffffff1673ffffffffffffffffffffffffffffffffffffffff16815260200160058201548152602001600682015481526020016007820160009054906101000a900460ff161515151581526020016007820160019054906101000a900460ff166003811115611051576110506125cd565b5b6003811115611063576110626125cd565b5b815260200160088201805461107790612994565b80601f01602080910402602001604051908101604052809291908181526020018280546110a390612994565b80156110f05780601f106110c5576101008083540402835291602001916110f0565b820191906000526020600020905b8154815290600101906020018083116110d357829003601f168201915b5050505050815250509050919050565b6004818154811061111057600080fd5b906000526020600020016000915054906101000a900473ffffffffffffffffffffffffffffffffffffffff1681565b600260009054906101000a900473ffffffffffffffffffffffffffffffffffffffff1673ffffffffffffffffffffffffffffffffffffffff163373ffffffffffffffffffffffffffffffffffffffff16146111cf576040517f08c379a00000000000000000000000000000000000000000000000000000000081526004016111c690612f39565b60405180910390fd5b600360008273ffffffffffffffffffffffffffffffffffffffff1673ffffffffffffffffffffffffffffffffffffffff16815260200190815260200160002060009054906101000a900460ff166112dc576001600360008373ffffffffffffffffffffffffffffffffffffffff1673ffffffffffffffffffffffffffffffffffffffff16815260200190815260200160002060006101000a81548160ff0219169083151502179055506004819080600181540180825580915050600190039060005260206000200160009091909190916101000a81548173ffffffffffffffffffffffffffffffffffffffff021916908373ffffffffffffffffffffffffffffffffffffffff1602179055505b600660008273ffffffffffffffffffffffffffffffffffffffff1673ffffffffffffffffffffffffffffffffffffffff16815260200190815260200160002060009054906101000a900460ff1615611392576000600660008373ffffffffffffffffffffffffffffffffffffffff1673ffffffffffffffffffffffffffffffffffffffff16815260200190815260200160002060006101000a81548160ff021916908315150217905550611391600782611d7e565b5b50565b600260009054906101000a900473ffffffffffffffffffffffffffffffffffffffff1673ffffffffffffffffffffffffffffffffffffffff163373ffffffffffffffffffffffffffffffffffffffff1614611425576040517f08c379a000000000000000000000000000000000000000000000000000000000815260040161141c90612f39565b60405180910390fd5b6001600560008373ffffffffffffffffffffffffffffffffffffffff1673ffffffffffffffffffffffffffffffffffffffff16815260200190815260200160002060006101000a81548160ff02191690831515021790555050565b60006020528060005260406000206000915090508060000154908060010180546114a990612994565b80601f01602080910402602001604051908101604052809291908181526020018280546114d590612994565b80156115225780601f106114f757610100808354040283529160200191611522565b820191906000526020600020905b81548152906001019060200180831161150557829003601f168201915b50505050509080600201805461153790612994565b80601f016020809104026020016040519081016040528092919081815260200182805461156390612994565b80156115b05780601f10611585576101008083540402835291602001916115b0565b820191906000526020600020905b81548152906001019060200180831161159357829003601f168201915b5050505050908060030160009054906101000a900473ffffffffffffffffffffffffffffffffffffffff16908060040160009054906101000a900473ffffffffffffffffffffffffffffffffffffffff16908060050154908060060154908060070160009054906101000a900460ff16908060070160019054906101000a900460ff169080600801805461164390612994565b80601f016020809104026020016040519081016040528092919081815260200182805461166f90612994565b80156116bc5780601f10611691576101008083540402835291602001916116bc565b820191906000526020600020905b81548152906001019060200180831161169f57829003601f168201915b505050505090508a565b60066020528060005260406000206000915054906101000a900460ff1681565b600260009054906101000a900473ffffffffffffffffffffffffffffffffffffffff1673ffffffffffffffffffffffffffffffffffffffff163373ffffffffffffffffffffffffffffffffffffffff1614611776576040517f08c379a000000000000000000000000000000000000000000000000000000000815260040161176d90612f39565b60405180910390fd5b6000600560008373ffffffffffffffffffffffffffffffffffffffff1673ffffffffffffffffffffffffffffffffffffffff16815260200190815260200160002060006101000a81548160ff02191690831515021790555050565b6060600780548060200260200160405190810160405280929190818152602001828054801561185557602002820191906000526020600020905b8160009054906101000a900473ffffffffffffffffffffffffffffffffffffffff1673ffffffffffffffffffffffffffffffffffffffff168152602001906001019080831161180b575b5050505050905090565b6000806000838152602001908152602001600020905060008160000154036118bc576040517f08c379a00000000000000000000000000000000000000000000000000000000081526004016118b390612d89565b60405180910390fd5b600260009054906101000a900473ffffffffffffffffffffffffffffffffffffffff1673ffffffffffffffffffffffffffffffffffffffff163373ffffffffffffffffffffffffffffffffffffffff16148061196757508060030160009054906101000a900473ffffffffffffffffffffffffffffffffffffffff1673ffffffffffffffffffffffffffffffffffffffff163373ffffffffffffffffffffffffffffffffffffffff16145b6119a6576040517f08c379a000000000000000000000000000000000000000000000000000000000815260040161199d90612df5565b60405180910390fd5b60038160070160016101000a81548160ff021916908360038111156119ce576119cd6125cd565b5b02179055503373ffffffffffffffffffffffffffffffffffffffff16827fe24e1e0ead24ddb181df17284049eacf3c81331226932db757739d6e4d65061860405160405180910390a35050565b60078181548110611a2b57600080fd5b906000526020600020016000915054906101000a900473ffffffffffffffffffffffffffffffffffffffff1681565b600260009054906101000a900473ffffffffffffffffffffffffffffffffffffffff1673ffffffffffffffffffffffffffffffffffffffff163373ffffffffffffffffffffffffffffffffffffffff1614611aea576040517f08c379a0000000000000000000000000000000000000000000000000000000008152600401611ae190612f39565b60405180910390fd5b600360008273ffffffffffffffffffffffffffffffffffffffff1673ffffffffffffffffffffffffffffffffffffffff16815260200190815260200160002060009054906101000a900460ff16611b76576040517f08c379a0000000000000000000000000000000000000000000000000000000008152600401611b6d90612fa5565b60405180910390fd5b6000600360008373ffffffffffffffffffffffffffffffffffffffff1673ffffffffffffffffffffffffffffffffffffffff16815260200190815260200160002060006101000a81548160ff02191690831515021790555060005b600480549050811015611d54578173ffffffffffffffffffffffffffffffffffffffff1660048281548110611c0957611c08612fc5565b5b9060005260206000200160009054906101000a900473ffffffffffffffffffffffffffffffffffffffff1673ffffffffffffffffffffffffffffffffffffffff1603611d475760046001600480549050611c639190612ff4565b81548110611c7457611c73612fc5565b5b9060005260206000200160009054906101000a900473ffffffffffffffffffffffffffffffffffffffff1660048281548110611cb357611cb2612fc5565b5b9060005260206000200160006101000a81548173ffffffffffffffffffffffffffffffffffffffff021916908373ffffffffffffffffffffffffffffffffffffffff1602179055506004805480611d0d57611d0c613028565b5b6001900381819060005260206000200160006101000a81549073ffffffffffffffffffffffffffffffffffffffff02191690559055611d54565b8080600101915050611bd1565b5050565b600260009054906101000a900473ffffffffffffffffffffffffffffffffffffffff1681565b60005b8280549050811015611efe578173ffffffffffffffffffffffffffffffffffffffff16838281548110611db757611db6612fc5565b5b9060005260206000200160009054906101000a900473ffffffffffffffffffffffffffffffffffffffff1673ffffffffffffffffffffffffffffffffffffffff1603611ef1578260018480549050611e0f9190612ff4565b81548110611e2057611e1f612fc5565b5b9060005260206000200160009054906101000a900473ffffffffffffffffffffffffffffffffffffffff16838281548110611e5e57611e5d612fc5565b5b9060005260206000200160006101000a81548173ffffffffffffffffffffffffffffffffffffffff021916908373ffffffffffffffffffffffffffffffffffffffff16021790555082805480611eb757611eb6613028565b5b6001900381819060005260206000200160006101000a81549073ffffffffffffffffffffffffffffffffffffffff02191690559055611efe565b8080600101915050611d81565b505050565b604051806101400160405280600081526020016060815260200160608152602001600073ffffffffffffffffffffffffffffffffffffffff168152602001600073ffffffffffffffffffffffffffffffffffffffff168152602001600081526020016000815260200160001515815260200160006003811115611f8957611f886125cd565b5b8152602001606081525090565b6000819050919050565b611fa981611f96565b82525050565b6000602082019050611fc46000830184611fa0565b92915050565b6000604051905090565b600080fd5b600080fd5b600080fd5b600080fd5b6000601f19601f8301169050919050565b7f4e487b7100000000000000000000000000000000000000000000000000000000600052604160045260246000fd5b61203182611fe8565b810181811067ffffffffffffffff821117156120505761204f611ff9565b5b80604052505050565b6000612063611fca565b905061206f8282612028565b919050565b600067ffffffffffffffff82111561208f5761208e611ff9565b5b61209882611fe8565b9050602081019050919050565b82818337600083830152505050565b60006120c76120c284612074565b612059565b9050828152602081018484840111156120e3576120e2611fe3565b5b6120ee8482856120a5565b509392505050565b600082601f83011261210b5761210a611fde565b5b813561211b8482602086016120b4565b91505092915050565b60008115159050919050565b61213981612124565b811461214457600080fd5b50565b60008135905061215681612130565b92915050565b6000806000806080858703121561217657612175611fd4565b5b600085013567ffffffffffffffff81111561219457612193611fd9565b5b6121a0878288016120f6565b945050602085013567ffffffffffffffff8111156121c1576121c0611fd9565b5b6121cd878288016120f6565b93505060406121de87828801612147565b925050606085013567ffffffffffffffff8111156121ff576121fe611fd9565b5b61220b878288016120f6565b91505092959194509250565b600073ffffffffffffffffffffffffffffffffffffffff82169050919050565b600061224282612217565b9050919050565b61225281612237565b811461225d57600080fd5b50565b60008135905061226f81612249565b92915050565b60006020828403121561228b5761228a611fd4565b5b600061229984828501612260565b91505092915050565b6122ab81612124565b82525050565b60006020820190506122c660008301846122a2565b92915050565b6122d581611f96565b81146122e057600080fd5b50565b6000813590506122f2816122cc565b92915050565b600080600080600060a0868803121561231457612313611fd4565b5b6000612322888289016122e3565b955050602086013567ffffffffffffffff81111561234357612342611fd9565b5b61234f888289016120f6565b945050604086013567ffffffffffffffff8111156123705761236f611fd9565b5b61237c888289016120f6565b935050606061238d88828901612147565b925050608086013567ffffffffffffffff8111156123ae576123ad611fd9565b5b6123ba888289016120f6565b9150509295509295909350565b600081519050919050565b600082825260208201905092915050565b6000819050602082019050919050565b6123fc81612237565b82525050565b600061240e83836123f3565b60208301905092915050565b6000602082019050919050565b6000612432826123c7565b61243c81856123d2565b9350612447836123e3565b8060005b8381101561247857815161245f8882612402565b975061246a8361241a565b92505060018101905061244b565b5085935050505092915050565b6000602082019050818103600083015261249f8184612427565b905092915050565b600080604083850312156124be576124bd611fd4565b5b60006124cc858286016122e3565b925050602083013567ffffffffffffffff8111156124ed576124ec611fd9565b5b6124f9858286016120f6565b9150509250929050565b60006020828403121561251957612518611fd4565b5b6000612527848285016122e3565b91505092915050565b61253981611f96565b82525050565b600081519050919050565b600082825260208201905092915050565b60005b8381101561257957808201518184015260208101905061255e565b60008484015250505050565b60006125908261253f565b61259a818561254a565b93506125aa81856020860161255b565b6125b381611fe8565b840191505092915050565b6125c781612124565b82525050565b7f4e487b7100000000000000000000000000000000000000000000000000000000600052602160045260246000fd5b6004811061260d5761260c6125cd565b5b50565b600081905061261e826125fc565b919050565b600061262e82612610565b9050919050565b61263e81612623565b82525050565b60006101408301600083015161265d6000860182612530565b50602083015184820360208601526126758282612585565b9150506040830151848203604086015261268f8282612585565b91505060608301516126a460608601826123f3565b5060808301516126b760808601826123f3565b5060a08301516126ca60a0860182612530565b5060c08301516126dd60c0860182612530565b5060e08301516126f060e08601826125be565b50610100830151612705610100860182612635565b5061012083015184820361012086015261271f8282612585565b9150508091505092915050565b600060208201905081810360008301526127468184612644565b905092915050565b61275781612237565b82525050565b6000602082019050612772600083018461274e565b92915050565b600082825260208201905092915050565b60006127948261253f565b61279e8185612778565b93506127ae81856020860161255b565b6127b781611fe8565b840191505092915050565b6127cb81612623565b82525050565b6000610140820190506127e7600083018d611fa0565b81810360208301526127f9818c612789565b9050818103604083015261280d818b612789565b905061281c606083018a61274e565b612829608083018961274e565b61283660a0830188611fa0565b61284360c0830187611fa0565b61285060e08301866122a2565b61285e6101008301856127c2565b8181036101208301526128718184612789565b90509b9a5050505050505050505050565b7f4f6e6c79206661726d6572206f722061646d696e000000000000000000000000600082015250565b60006128b8601483612778565b91506128c382612882565b602082019050919050565b600060208201905081810360008301526128e7816128ab565b9050919050565b7f4e487b7100000000000000000000000000000000000000000000000000000000600052601160045260246000fd5b600061292882611f96565b91507fffffffffffffffffffffffffffffffffffffffffffffffffffffffffffffffff820361295a576129596128ee565b5b600182019050919050565b7f4e487b7100000000000000000000000000000000000000000000000000000000600052602260045260246000fd5b600060028204905060018216806129ac57607f821691505b6020821081036129bf576129be612965565b5b50919050565b60008190508160005260206000209050919050565b60006020601f8301049050919050565b600082821b905092915050565b600060088302612a277fffffffffffffffffffffffffffffffffffffffffffffffffffffffffffffffff826129ea565b612a3186836129ea565b95508019841693508086168417925050509392505050565b6000819050919050565b6000612a6e612a69612a6484611f96565b612a49565b611f96565b9050919050565b6000819050919050565b612a8883612a53565b612a9c612a9482612a75565b8484546129f7565b825550505050565b600090565b612ab1612aa4565b612abc818484612a7f565b505050565b5b81811015612ae057612ad5600082612aa9565b600181019050612ac2565b5050565b601f821115612b2557612af6816129c5565b612aff846129da565b81016020851015612b0e578190505b612b22612b1a856129da565b830182612ac1565b50505b505050565b600082821c905092915050565b6000612b4860001984600802612b2a565b1980831691505092915050565b6000612b618383612b37565b9150826002028217905092915050565b612b7a8261253f565b67ffffffffffffffff811115612b9357612b92611ff9565b5b612b9d8254612994565b612ba8828285612ae4565b600060209050601f831160018114612bdb5760008415612bc9578287015190505b612bd38582612b55565b865550612c3b565b601f198416612be9866129c5565b60005b82811015612c1157848901518255600182019150602085019450602081019050612bec565b86831015612c2e5784890151612c2a601f891682612b37565b8355505b6001600288020188555050505b505050505050565b60006020820190508181036000830152612c5d8184612789565b905092915050565b7f416c72656164792061206661726d657200000000000000000000000000000000600082015250565b6000612c9b601083612778565b9150612ca682612c65565b602082019050919050565b60006020820190508181036000830152612cca81612c8e565b9050919050565b7f5265717565737420616c72656164792070656e64696e67000000000000000000600082015250565b6000612d07601783612778565b9150612d1282612cd1565b602082019050919050565b60006020820190508181036000830152612d3681612cfa565b9050919050565b7f426174636820646f6573206e6f74206578697374000000000000000000000000600082015250565b6000612d73601483612778565b9150612d7e82612d3d565b602082019050919050565b60006020820190508181036000830152612da281612d66565b9050919050565b7f556e617574686f72697a65640000000000000000000000000000000000000000600082015250565b6000612ddf600c83612778565b9150612dea82612da9565b602082019050919050565b60006020820190508181036000830152612e0e81612dd2565b9050919050565b7f4f6e6c79206d696c6c6572000000000000000000000000000000000000000000600082015250565b6000612e4b600b83612778565b9150612e5682612e15565b602082019050919050565b60006020820190508181036000830152612e7a81612e3e565b9050919050565b7f496e76616c696420737461746500000000000000000000000000000000000000600082015250565b6000612eb7600d83612778565b9150612ec282612e81565b602082019050919050565b60006020820190508181036000830152612ee681612eaa565b9050919050565b7f4f6e6c792061646d696e00000000000000000000000000000000000000000000600082015250565b6000612f23600a83612778565b9150612f2e82612eed565b602082019050919050565b60006020820190508181036000830152612f5281612f16565b9050919050565b7f4e6f742061206661726d65720000000000000000000000000000000000000000600082015250565b6000612f8f600c83612778565b9150612f9a82612f59565b602082019050919050565b60006020820190508181036000830152612fbe81612f82565b9050919050565b7f4e487b7100000000000000000000000000000000000000000000000000000000600052603260045260246000fd5b6000612fff82611f96565b915061300a83611f96565b9250828203905081811115613022576130216128ee565b5b92915050565b7f4e487b7100000000000000000000000000000000000000000000000000000000600052603160045260246000fdfea2646970667358221220dcf1c3dc0cbec8f0783f15adade879acd82f750d7f79272df6abbc1b04023c3564736f6c63430008180033",
  "linkReferences": {},
  "deployedLinkReferences": {}
}